{
  "contractName": "DADs",
  "abi": [
    {
      "inputs": [],
      "stateMutability": "nonpayable",
      "type": "constructor"
    },
    {
      "inputs": [],
      "name": "ApprovalCallerNotOwnerNorApproved",
      "type": "error"
    },
    {
      "inputs": [],
      "name": "ApprovalQueryForNonexistentToken",
      "type": "error"
    },
    {
      "inputs": [],
      "name": "ApproveToCaller",
      "type": "error"
    },
    {
      "inputs": [],
      "name": "BalanceQueryForZeroAddress",
      "type": "error"
    },
    {
      "inputs": [],
      "name": "MintERC2309QuantityExceedsLimit",
      "type": "error"
    },
    {
      "inputs": [],
      "name": "MintToZeroAddress",
      "type": "error"
    },
    {
      "inputs": [],
      "name": "MintZeroQuantity",
      "type": "error"
    },
    {
      "inputs": [],
      "name": "OwnerQueryForNonexistentToken",
      "type": "error"
    },
    {
      "inputs": [],
      "name": "OwnershipNotInitializedForExtraData",
      "type": "error"
    },
    {
      "inputs": [],
      "name": "TransferCallerNotOwnerNorApproved",
      "type": "error"
    },
    {
      "inputs": [],
      "name": "TransferFromIncorrectOwner",
      "type": "error"
    },
    {
      "inputs": [],
      "name": "TransferToNonERC721ReceiverImplementer",
      "type": "error"
    },
    {
      "inputs": [],
      "name": "TransferToZeroAddress",
      "type": "error"
    },
    {
      "inputs": [],
      "name": "URIQueryForNonexistentToken",
      "type": "error"
    },
    {
      "anonymous": false,
      "inputs": [
        {
          "indexed": true,
          "internalType": "address",
          "name": "owner",
          "type": "address"
        },
        {
          "indexed": true,
          "internalType": "address",
          "name": "approved",
          "type": "address"
        },
        {
          "indexed": true,
          "internalType": "uint256",
          "name": "tokenId",
          "type": "uint256"
        }
      ],
      "name": "Approval",
      "type": "event"
    },
    {
      "anonymous": false,
      "inputs": [
        {
          "indexed": true,
          "internalType": "address",
          "name": "owner",
          "type": "address"
        },
        {
          "indexed": true,
          "internalType": "address",
          "name": "operator",
          "type": "address"
        },
        {
          "indexed": false,
          "internalType": "bool",
          "name": "approved",
          "type": "bool"
        }
      ],
      "name": "ApprovalForAll",
      "type": "event"
    },
    {
      "anonymous": false,
      "inputs": [
        {
          "indexed": true,
          "internalType": "uint256",
          "name": "fromTokenId",
          "type": "uint256"
        },
        {
          "indexed": false,
          "internalType": "uint256",
          "name": "toTokenId",
          "type": "uint256"
        },
        {
          "indexed": true,
          "internalType": "address",
          "name": "from",
          "type": "address"
        },
        {
          "indexed": true,
          "internalType": "address",
          "name": "to",
          "type": "address"
        }
      ],
      "name": "ConsecutiveTransfer",
      "type": "event"
    },
    {
      "anonymous": false,
      "inputs": [
        {
          "indexed": true,
          "internalType": "address",
          "name": "previousOwner",
          "type": "address"
        },
        {
          "indexed": true,
          "internalType": "address",
          "name": "newOwner",
          "type": "address"
        }
      ],
      "name": "OwnershipTransferred",
      "type": "event"
    },
    {
      "anonymous": false,
      "inputs": [
        {
          "indexed": true,
          "internalType": "address",
          "name": "from",
          "type": "address"
        },
        {
          "indexed": true,
          "internalType": "address",
          "name": "to",
          "type": "address"
        },
        {
          "indexed": true,
          "internalType": "uint256",
          "name": "tokenId",
          "type": "uint256"
        }
      ],
      "name": "Transfer",
      "type": "event"
    },
    {
      "inputs": [],
      "name": "MAX_SUPPLY",
      "outputs": [
        {
          "internalType": "uint256",
          "name": "",
          "type": "uint256"
        }
      ],
      "stateMutability": "view",
      "type": "function"
    },
    {
      "inputs": [
        {
          "internalType": "address",
          "name": "to",
          "type": "address"
        },
        {
          "internalType": "uint256",
          "name": "tokenId",
          "type": "uint256"
        }
      ],
      "name": "approve",
      "outputs": [],
      "stateMutability": "nonpayable",
      "type": "function"
    },
    {
      "inputs": [
        {
          "internalType": "address",
          "name": "owner",
          "type": "address"
        }
      ],
      "name": "balanceOf",
      "outputs": [
        {
          "internalType": "uint256",
          "name": "",
          "type": "uint256"
        }
      ],
      "stateMutability": "view",
      "type": "function"
    },
    {
      "inputs": [
        {
          "internalType": "uint256",
          "name": "tokenId",
          "type": "uint256"
        }
      ],
      "name": "getApproved",
      "outputs": [
        {
          "internalType": "address",
          "name": "",
          "type": "address"
        }
      ],
      "stateMutability": "view",
      "type": "function"
    },
    {
      "inputs": [
        {
          "internalType": "address",
          "name": "owner",
          "type": "address"
        },
        {
          "internalType": "address",
          "name": "operator",
          "type": "address"
        }
      ],
      "name": "isApprovedForAll",
      "outputs": [
        {
          "internalType": "bool",
          "name": "",
          "type": "bool"
        }
      ],
      "stateMutability": "view",
      "type": "function"
    },
    {
      "inputs": [],
      "name": "isMintEnabled",
      "outputs": [
        {
          "internalType": "bool",
          "name": "",
          "type": "bool"
        }
      ],
      "stateMutability": "view",
      "type": "function"
    },
    {
      "inputs": [],
      "name": "merkleRoot",
      "outputs": [
        {
          "internalType": "bytes32",
          "name": "",
          "type": "bytes32"
        }
      ],
      "stateMutability": "view",
      "type": "function"
    },
    {
      "inputs": [
        {
          "internalType": "address",
          "name": "",
          "type": "address"
        }
      ],
      "name": "mints",
      "outputs": [
        {
          "internalType": "uint256",
          "name": "",
          "type": "uint256"
        }
      ],
      "stateMutability": "view",
      "type": "function"
    },
    {
      "inputs": [],
      "name": "name",
      "outputs": [
        {
          "internalType": "string",
          "name": "",
          "type": "string"
        }
      ],
      "stateMutability": "view",
      "type": "function"
    },
    {
      "inputs": [],
      "name": "owner",
      "outputs": [
        {
          "internalType": "address",
          "name": "",
          "type": "address"
        }
      ],
      "stateMutability": "view",
      "type": "function"
    },
    {
      "inputs": [
        {
          "internalType": "uint256",
          "name": "tokenId",
          "type": "uint256"
        }
      ],
      "name": "ownerOf",
      "outputs": [
        {
          "internalType": "address",
          "name": "",
          "type": "address"
        }
      ],
      "stateMutability": "view",
      "type": "function"
    },
    {
      "inputs": [],
      "name": "renounceOwnership",
      "outputs": [],
      "stateMutability": "nonpayable",
      "type": "function"
    },
    {
      "inputs": [
        {
          "internalType": "address",
          "name": "from",
          "type": "address"
        },
        {
          "internalType": "address",
          "name": "to",
          "type": "address"
        },
        {
          "internalType": "uint256",
          "name": "tokenId",
          "type": "uint256"
        }
      ],
      "name": "safeTransferFrom",
      "outputs": [],
      "stateMutability": "nonpayable",
      "type": "function"
    },
    {
      "inputs": [
        {
          "internalType": "address",
          "name": "from",
          "type": "address"
        },
        {
          "internalType": "address",
          "name": "to",
          "type": "address"
        },
        {
          "internalType": "uint256",
          "name": "tokenId",
          "type": "uint256"
        },
        {
          "internalType": "bytes",
          "name": "_data",
          "type": "bytes"
        }
      ],
      "name": "safeTransferFrom",
      "outputs": [],
      "stateMutability": "nonpayable",
      "type": "function"
    },
    {
      "inputs": [
        {
          "internalType": "address",
          "name": "operator",
          "type": "address"
        },
        {
          "internalType": "bool",
          "name": "approved",
          "type": "bool"
        }
      ],
      "name": "setApprovalForAll",
      "outputs": [],
      "stateMutability": "nonpayable",
      "type": "function"
    },
    {
      "inputs": [
        {
          "internalType": "bytes4",
          "name": "interfaceId",
          "type": "bytes4"
        }
      ],
      "name": "supportsInterface",
      "outputs": [
        {
          "internalType": "bool",
          "name": "",
          "type": "bool"
        }
      ],
      "stateMutability": "view",
      "type": "function"
    },
    {
      "inputs": [],
      "name": "symbol",
      "outputs": [
        {
          "internalType": "string",
          "name": "",
          "type": "string"
        }
      ],
      "stateMutability": "view",
      "type": "function"
    },
    {
      "inputs": [
        {
          "internalType": "uint256",
          "name": "tokenId",
          "type": "uint256"
        }
      ],
      "name": "tokenURI",
      "outputs": [
        {
          "internalType": "string",
          "name": "",
          "type": "string"
        }
      ],
      "stateMutability": "view",
      "type": "function"
    },
    {
      "inputs": [],
      "name": "totalSupply",
      "outputs": [
        {
          "internalType": "uint256",
          "name": "",
          "type": "uint256"
        }
      ],
      "stateMutability": "view",
      "type": "function"
    },
    {
      "inputs": [
        {
          "internalType": "address",
          "name": "from",
          "type": "address"
        },
        {
          "internalType": "address",
          "name": "to",
          "type": "address"
        },
        {
          "internalType": "uint256",
          "name": "tokenId",
          "type": "uint256"
        }
      ],
      "name": "transferFrom",
      "outputs": [],
      "stateMutability": "nonpayable",
      "type": "function"
    },
    {
      "inputs": [
        {
          "internalType": "address",
          "name": "newOwner",
          "type": "address"
        }
      ],
      "name": "transferOwnership",
      "outputs": [],
      "stateMutability": "nonpayable",
      "type": "function"
    },
    {
      "inputs": [
        {
          "internalType": "bytes32[]",
          "name": "_merkleProof",
          "type": "bytes32[]"
        },
        {
          "internalType": "address",
          "name": "user",
          "type": "address"
        }
      ],
      "name": "checkValidity",
      "outputs": [
        {
          "internalType": "bool",
          "name": "",
          "type": "bool"
        }
      ],
      "stateMutability": "view",
      "type": "function"
    },
    {
      "inputs": [],
      "name": "flipMintEnabled",
      "outputs": [],
      "stateMutability": "nonpayable",
      "type": "function"
    },
    {
      "inputs": [
        {
          "internalType": "bytes32",
          "name": "_root",
          "type": "bytes32"
        }
      ],
      "name": "setMerkleRoot",
      "outputs": [],
      "stateMutability": "nonpayable",
      "type": "function"
    },
    {
      "inputs": [
        {
          "internalType": "bytes32[]",
          "name": "_merkleProof",
          "type": "bytes32[]"
        },
        {
          "internalType": "uint256",
          "name": "quantity",
          "type": "uint256"
        }
      ],
      "name": "mint",
      "outputs": [],
      "stateMutability": "nonpayable",
      "type": "function"
    }
  ],
  "bytecode": "0x60806040523480156200001157600080fd5b506040518060400160405280600681526020017f442e412e447300000000000000000000000000000000000000000000000000008152506040518060400160405280600681526020017f442e412e44730000000000000000000000000000000000000000000000000000815250816002908051906020019062000096929190620001c1565b508060039080519060200190620000af929190620001c1565b50620000c0620000ee60201b60201c565b6000819055505050620000e8620000dc620000f360201b60201c565b620000fb60201b60201c565b620002d5565b600090565b600033905090565b6000600860009054906101000a900473ffffffffffffffffffffffffffffffffffffffff16905081600860006101000a81548173ffffffffffffffffffffffffffffffffffffffff021916908373ffffffffffffffffffffffffffffffffffffffff1602179055508173ffffffffffffffffffffffffffffffffffffffff168173ffffffffffffffffffffffffffffffffffffffff167f8be0079c531659141344cd1fd0a4f28419497f9722a3daafe3b4186f6b6457e060405160405180910390a35050565b828054620001cf90620002a0565b90600052602060002090601f016020900481019282620001f357600085556200023f565b82601f106200020e57805160ff19168380011785556200023f565b828001600101855582156200023f579182015b828111156200023e57825182559160200191906001019062000221565b5b5090506200024e919062000252565b5090565b5b808211156200026d57600081600090555060010162000253565b5090565b7f4e487b7100000000000000000000000000000000000000000000000000000000600052602260045260246000fd5b60006002820490506001821680620002b957607f821691505b602082108103620002cf57620002ce62000271565b5b50919050565b6126f980620002e56000396000f3fe608060405234801561001057600080fd5b50600436106101735760003560e01c80635660f851116100de57806395d89b4111610097578063c87b56dd11610071578063c87b56dd14610412578063e985e9c514610442578063eb385c3514610472578063f2fde38b146104a257610173565b806395d89b41146103bc578063a22cb465146103da578063b88d4fde146103f657610173565b80635660f851146102e85780636352211e1461031857806370a0823114610348578063715018a6146103785780637cb64759146103825780638da5cb5b1461039e57610173565b80632eb4a7ab116101305780632eb4a7ab1461024c57806332cb6b0c1461026a578063346de50a1461028857806342842e0e146102a657806345de0d9b146102c257806354d78f56146102de57610173565b806301ffc9a71461017857806306fdde03146101a8578063081812fc146101c6578063095ea7b3146101f657806318160ddd1461021257806323b872dd14610230575b600080fd5b610192600480360381019061018d9190611a7b565b6104be565b60405161019f9190611ac3565b60405180910390f35b6101b0610550565b6040516101bd9190611b77565b60405180910390f35b6101e060048036038101906101db9190611bcf565b6105e2565b6040516101ed9190611c3d565b60405180910390f35b610210600480360381019061020b9190611c84565b610661565b005b61021a6107a5565b6040516102279190611cd3565b60405180910390f35b61024a60048036038101906102459190611cee565b6107bc565b005b610254610ade565b6040516102619190611d5a565b60405180910390f35b610272610ae4565b60405161027f9190611cd3565b60405180910390f35b610290610aea565b60405161029d9190611ac3565b60405180910390f35b6102c060048036038101906102bb9190611cee565b610afd565b005b6102dc60048036038101906102d79190611dda565b610b1d565b005b6102e6610c34565b005b61030260048036038101906102fd9190611e3a565b610c68565b60405161030f9190611cd3565b60405180910390f35b610332600480360381019061032d9190611bcf565b610c80565b60405161033f9190611c3d565b60405180910390f35b610362600480360381019061035d9190611e3a565b610c92565b60405161036f9190611cd3565b60405180910390f35b610380610d4a565b005b61039c60048036038101906103979190611e93565b610d5e565b005b6103a6610d70565b6040516103b39190611c3d565b60405180910390f35b6103c4610d9a565b6040516103d19190611b77565b60405180910390f35b6103f460048036038101906103ef9190611eec565b610e2c565b005b610410600480360381019061040b919061205c565b610fa3565b005b61042c60048036038101906104279190611bcf565b611016565b6040516104399190611b77565b60405180910390f35b61045c600480360381019061045791906120df565b6110b4565b6040516104699190611ac3565b60405180910390f35b61048c6004803603810190610487919061211f565b611148565b6040516104999190611ac3565b60405180910390f35b6104bc60048036038101906104b79190611e3a565b61120d565b005b60006301ffc9a760e01b827bffffffffffffffffffffffffffffffffffffffffffffffffffffffff1916148061051957506380ac58cd60e01b827bffffffffffffffffffffffffffffffffffffffffffffffffffffffff1916145b806105495750635b5e139f60e01b827bffffffffffffffffffffffffffffffffffffffffffffffffffffffff1916145b9050919050565b60606002805461055f906121ae565b80601f016020809104026020016040519081016040528092919081815260200182805461058b906121ae565b80156105d85780601f106105ad576101008083540402835291602001916105d8565b820191906000526020600020905b8154815290600101906020018083116105bb57829003601f168201915b5050505050905090565b60006105ed82611290565b610623576040517fcf4700e400000000000000000000000000000000000000000000000000000000815260040160405180910390fd5b6006600083815260200190815260200160002060000160009054906101000a900473ffffffffffffffffffffffffffffffffffffffff169050919050565b600061066c82610c80565b90508073ffffffffffffffffffffffffffffffffffffffff1661068d6112ef565b73ffffffffffffffffffffffffffffffffffffffff16146106f0576106b9816106b46112ef565b6110b4565b6106ef576040517fcfb3b94200000000000000000000000000000000000000000000000000000000815260040160405180910390fd5b5b826006600084815260200190815260200160002060000160006101000a81548173ffffffffffffffffffffffffffffffffffffffff021916908373ffffffffffffffffffffffffffffffffffffffff160217905550818373ffffffffffffffffffffffffffffffffffffffff168273ffffffffffffffffffffffffffffffffffffffff167f8c5be1e5ebec7d5bd14f71427d1e84f3dd0314c0f7b2291e5b200ac8c7c3b92560405160405180910390a4505050565b60006107af6112f7565b6001546000540303905090565b60006107c7826112fc565b90508373ffffffffffffffffffffffffffffffffffffffff168173ffffffffffffffffffffffffffffffffffffffff161461082e576040517fa114810000000000000000000000000000000000000000000000000000000000815260040160405180910390fd5b60008061083a846113c8565b91509150610850818761084b6112ef565b6113ef565b61089c57610865866108606112ef565b6110b4565b61089b576040517f59c896be00000000000000000000000000000000000000000000000000000000815260040160405180910390fd5b5b600073ffffffffffffffffffffffffffffffffffffffff168573ffffffffffffffffffffffffffffffffffffffff1603610902576040517fea553b3400000000000000000000000000000000000000000000000000000000815260040160405180910390fd5b61090f8686866001611433565b801561091a57600082555b600560008773ffffffffffffffffffffffffffffffffffffffff1673ffffffffffffffffffffffffffffffffffffffff168152602001908152602001600020600081546001900391905081905550600560008673ffffffffffffffffffffffffffffffffffffffff1673ffffffffffffffffffffffffffffffffffffffff16815260200190815260200160002060008154600101919050819055506109e8856109c4888887611439565b7c020000000000000000000000000000000000000000000000000000000017611461565b600460008681526020019081526020016000208190555060007c0200000000000000000000000000000000000000000000000000000000841603610a6e5760006001850190506000600460008381526020019081526020016000205403610a6c576000548114610a6b578360046000838152602001908152602001600020819055505b5b505b838573ffffffffffffffffffffffffffffffffffffffff168773ffffffffffffffffffffffffffffffffffffffff167fddf252ad1be2c89b69c2b068fc378daa952ba7f163c4a11628f55a4df523b3ef60405160405180910390a4610ad6868686600161148c565b505050505050565b60095481565b611f4081565b600b60009054906101000a900460ff1681565b610b1883838360405180602001604052806000815250610fa3565b505050565b600b60009054906101000a900460ff16610b6c576040517f08c379a0000000000000000000000000000000000000000000000000000000008152600401610b639061222b565b60405180910390fd5b611f4081610b786107a5565b610b82919061227a565b1115610bc3576040517f08c379a0000000000000000000000000000000000000000000000000000000008152600401610bba9061231c565b60405180910390fd5b610bce838333611148565b5080600a60003373ffffffffffffffffffffffffffffffffffffffff1673ffffffffffffffffffffffffffffffffffffffff1681526020019081526020016000206000828254610c1e919061227a565b92505081905550610c2f3382611492565b505050565b610c3c61164d565b600b60009054906101000a900460ff1615600b60006101000a81548160ff021916908315150217905550565b600a6020528060005260406000206000915090505481565b6000610c8b826112fc565b9050919050565b60008073ffffffffffffffffffffffffffffffffffffffff168273ffffffffffffffffffffffffffffffffffffffff1603610cf9576040517f8f4eb60400000000000000000000000000000000000000000000000000000000815260040160405180910390fd5b67ffffffffffffffff600560008473ffffffffffffffffffffffffffffffffffffffff1673ffffffffffffffffffffffffffffffffffffffff16815260200190815260200160002054169050919050565b610d5261164d565b610d5c60006116cb565b565b610d6661164d565b8060098190555050565b6000600860009054906101000a900473ffffffffffffffffffffffffffffffffffffffff16905090565b606060038054610da9906121ae565b80601f0160208091040260200160405190810160405280929190818152602001828054610dd5906121ae565b8015610e225780601f10610df757610100808354040283529160200191610e22565b820191906000526020600020905b815481529060010190602001808311610e0557829003601f168201915b5050505050905090565b610e346112ef565b73ffffffffffffffffffffffffffffffffffffffff168273ffffffffffffffffffffffffffffffffffffffff1603610e98576040517fb06307db00000000000000000000000000000000000000000000000000000000815260040160405180910390fd5b8060076000610ea56112ef565b73ffffffffffffffffffffffffffffffffffffffff1673ffffffffffffffffffffffffffffffffffffffff16815260200190815260200160002060008473ffffffffffffffffffffffffffffffffffffffff1673ffffffffffffffffffffffffffffffffffffffff16815260200190815260200160002060006101000a81548160ff0219169083151502179055508173ffffffffffffffffffffffffffffffffffffffff16610f526112ef565b73ffffffffffffffffffffffffffffffffffffffff167f17307eab39ab6107e8899845ad3d59bd9653f200f220920489ca2b5937696c3183604051610f979190611ac3565b60405180910390a35050565b610fae8484846107bc565b60008373ffffffffffffffffffffffffffffffffffffffff163b1461101057610fd984848484611791565b61100f576040517fd1a57ed600000000000000000000000000000000000000000000000000000000815260040160405180910390fd5b5b50505050565b606061102182611290565b611057576040517fa14c4b5000000000000000000000000000000000000000000000000000000000815260040160405180910390fd5b60006110616118e1565b9050600081510361108157604051806020016040528060008152506110ac565b8061108b846118f8565b60405160200161109c929190612378565b6040516020818303038152906040525b915050919050565b6000600760008473ffffffffffffffffffffffffffffffffffffffff1673ffffffffffffffffffffffffffffffffffffffff16815260200190815260200160002060008373ffffffffffffffffffffffffffffffffffffffff1673ffffffffffffffffffffffffffffffffffffffff16815260200190815260200160002060009054906101000a900460ff16905092915050565b6000808260405160200161115c91906123e4565b6040516020818303038152906040528051906020012090506111c2858580806020026020016040519081016040528093929190818152602001838360200280828437600081840152601f19601f820116905080830192505050505050506009548361193f565b611201576040517f08c379a00000000000000000000000000000000000000000000000000000000081526004016111f89061244b565b60405180910390fd5b60019150509392505050565b61121561164d565b600073ffffffffffffffffffffffffffffffffffffffff168173ffffffffffffffffffffffffffffffffffffffff1603611284576040517f08c379a000000000000000000000000000000000000000000000000000000000815260040161127b906124dd565b60405180910390fd5b61128d816116cb565b50565b60008161129b6112f7565b111580156112aa575060005482105b80156112e8575060007c0100000000000000000000000000000000000000000000000000000000600460008581526020019081526020016000205416145b9050919050565b600033905090565b600090565b6000808290508061130b6112f7565b11611391576000548110156113905760006004600083815260200190815260200160002054905060007c010000000000000000000000000000000000000000000000000000000082160361138e575b6000810361138457600460008360019003935083815260200190815260200160002054905061135a565b80925050506113c3565b505b5b6040517fdf2d9b4200000000000000000000000000000000000000000000000000000000815260040160405180910390fd5b919050565b60008060006006600085815260200190815260200160002090508092508254915050915091565b600073ffffffffffffffffffffffffffffffffffffffff8316925073ffffffffffffffffffffffffffffffffffffffff821691508382148383141790509392505050565b50505050565b60008060e883901c905060e8611450868684611956565b62ffffff16901b9150509392505050565b600073ffffffffffffffffffffffffffffffffffffffff83169250814260a01b178317905092915050565b50505050565b600080549050600082036114d2576040517fb562e8dd00000000000000000000000000000000000000000000000000000000815260040160405180910390fd5b6114df6000848385611433565b600160406001901b178202600560008573ffffffffffffffffffffffffffffffffffffffff1673ffffffffffffffffffffffffffffffffffffffff16815260200190815260200160002060008282540192505081905550611556836115476000866000611439565b6115508561195f565b17611461565b6004600083815260200190815260200160002081905550600080838301905073ffffffffffffffffffffffffffffffffffffffff85169150828260007fddf252ad1be2c89b69c2b068fc378daa952ba7f163c4a11628f55a4df523b3ef600080a4600183015b8181146115f757808360007fddf252ad1be2c89b69c2b068fc378daa952ba7f163c4a11628f55a4df523b3ef600080a46001810190506115bc565b5060008203611632576040517f2e07630000000000000000000000000000000000000000000000000000000000815260040160405180910390fd5b806000819055505050611648600084838561148c565b505050565b61165561196f565b73ffffffffffffffffffffffffffffffffffffffff16611673610d70565b73ffffffffffffffffffffffffffffffffffffffff16146116c9576040517f08c379a00000000000000000000000000000000000000000000000000000000081526004016116c090612549565b60405180910390fd5b565b6000600860009054906101000a900473ffffffffffffffffffffffffffffffffffffffff16905081600860006101000a81548173ffffffffffffffffffffffffffffffffffffffff021916908373ffffffffffffffffffffffffffffffffffffffff1602179055508173ffffffffffffffffffffffffffffffffffffffff168173ffffffffffffffffffffffffffffffffffffffff167f8be0079c531659141344cd1fd0a4f28419497f9722a3daafe3b4186f6b6457e060405160405180910390a35050565b60008373ffffffffffffffffffffffffffffffffffffffff1663150b7a026117b76112ef565b8786866040518563ffffffff1660e01b81526004016117d994939291906125be565b6020604051808303816000875af192505050801561181557506040513d601f19601f82011682018060405250810190611812919061261f565b60015b61188e573d8060008114611845576040519150601f19603f3d011682016040523d82523d6000602084013e61184a565b606091505b506000815103611886576040517fd1a57ed600000000000000000000000000000000000000000000000000000000815260040160405180910390fd5b805181602001fd5b63150b7a0260e01b7bffffffffffffffffffffffffffffffffffffffffffffffffffffffff1916817bffffffffffffffffffffffffffffffffffffffffffffffffffffffff191614915050949350505050565b606060405180602001604052806000815250905090565b606060806040510190508060405280825b60011561192b57600183039250600a81066030018353600a8104905080611909575b508181036020830392508083525050919050565b60008261194c8584611977565b1490509392505050565b60009392505050565b60006001821460e11b9050919050565b600033905090565b60008082905060005b84518110156119c2576119ad828683815181106119a05761199f61264c565b5b60200260200101516119cd565b915080806119ba9061267b565b915050611980565b508091505092915050565b60008183106119e5576119e082846119f8565b6119f0565b6119ef83836119f8565b5b905092915050565b600082600052816020526040600020905092915050565b6000604051905090565b600080fd5b600080fd5b60007fffffffff0000000000000000000000000000000000000000000000000000000082169050919050565b611a5881611a23565b8114611a6357600080fd5b50565b600081359050611a7581611a4f565b92915050565b600060208284031215611a9157611a90611a19565b5b6000611a9f84828501611a66565b91505092915050565b60008115159050919050565b611abd81611aa8565b82525050565b6000602082019050611ad86000830184611ab4565b92915050565b600081519050919050565b600082825260208201905092915050565b60005b83811015611b18578082015181840152602081019050611afd565b83811115611b27576000848401525b50505050565b6000601f19601f8301169050919050565b6000611b4982611ade565b611b538185611ae9565b9350611b63818560208601611afa565b611b6c81611b2d565b840191505092915050565b60006020820190508181036000830152611b918184611b3e565b905092915050565b6000819050919050565b611bac81611b99565b8114611bb757600080fd5b50565b600081359050611bc981611ba3565b92915050565b600060208284031215611be557611be4611a19565b5b6000611bf384828501611bba565b91505092915050565b600073ffffffffffffffffffffffffffffffffffffffff82169050919050565b6000611c2782611bfc565b9050919050565b611c3781611c1c565b82525050565b6000602082019050611c526000830184611c2e565b92915050565b611c6181611c1c565b8114611c6c57600080fd5b50565b600081359050611c7e81611c58565b92915050565b60008060408385031215611c9b57611c9a611a19565b5b6000611ca985828601611c6f565b9250506020611cba85828601611bba565b9150509250929050565b611ccd81611b99565b82525050565b6000602082019050611ce86000830184611cc4565b92915050565b600080600060608486031215611d0757611d06611a19565b5b6000611d1586828701611c6f565b9350506020611d2686828701611c6f565b9250506040611d3786828701611bba565b9150509250925092565b6000819050919050565b611d5481611d41565b82525050565b6000602082019050611d6f6000830184611d4b565b92915050565b600080fd5b600080fd5b600080fd5b60008083601f840112611d9a57611d99611d75565b5b8235905067ffffffffffffffff811115611db757611db6611d7a565b5b602083019150836020820283011115611dd357611dd2611d7f565b5b9250929050565b600080600060408486031215611df357611df2611a19565b5b600084013567ffffffffffffffff811115611e1157611e10611a1e565b5b611e1d86828701611d84565b93509350506020611e3086828701611bba565b9150509250925092565b600060208284031215611e5057611e4f611a19565b5b6000611e5e84828501611c6f565b91505092915050565b611e7081611d41565b8114611e7b57600080fd5b50565b600081359050611e8d81611e67565b92915050565b600060208284031215611ea957611ea8611a19565b5b6000611eb784828501611e7e565b91505092915050565b611ec981611aa8565b8114611ed457600080fd5b50565b600081359050611ee681611ec0565b92915050565b60008060408385031215611f0357611f02611a19565b5b6000611f1185828601611c6f565b9250506020611f2285828601611ed7565b9150509250929050565b600080fd5b7f4e487b7100000000000000000000000000000000000000000000000000000000600052604160045260246000fd5b611f6982611b2d565b810181811067ffffffffffffffff82111715611f8857611f87611f31565b5b80604052505050565b6000611f9b611a0f565b9050611fa78282611f60565b919050565b600067ffffffffffffffff821115611fc757611fc6611f31565b5b611fd082611b2d565b9050602081019050919050565b82818337600083830152505050565b6000611fff611ffa84611fac565b611f91565b90508281526020810184848401111561201b5761201a611f2c565b5b612026848285611fdd565b509392505050565b600082601f83011261204357612042611d75565b5b8135612053848260208601611fec565b91505092915050565b6000806000806080858703121561207657612075611a19565b5b600061208487828801611c6f565b945050602061209587828801611c6f565b93505060406120a687828801611bba565b925050606085013567ffffffffffffffff8111156120c7576120c6611a1e565b5b6120d38782880161202e565b91505092959194509250565b600080604083850312156120f6576120f5611a19565b5b600061210485828601611c6f565b925050602061211585828601611c6f565b9150509250929050565b60008060006040848603121561213857612137611a19565b5b600084013567ffffffffffffffff81111561215657612155611a1e565b5b61216286828701611d84565b9350935050602061217586828701611c6f565b9150509250925092565b7f4e487b7100000000000000000000000000000000000000000000000000000000600052602260045260246000fd5b600060028204905060018216806121c657607f821691505b6020821081036121d9576121d861217f565b5b50919050565b7f4d696e74206e6f7420656e61626c656400000000000000000000000000000000600082015250565b6000612215601083611ae9565b9150612220826121df565b602082019050919050565b6000602082019050818103600083015261224481612208565b9050919050565b7f4e487b7100000000000000000000000000000000000000000000000000000000600052601160045260246000fd5b600061228582611b99565b915061229083611b99565b9250827fffffffffffffffffffffffffffffffffffffffffffffffffffffffffffffffff038211156122c5576122c461224b565b5b828201905092915050565b7f4d617820737570706c7920657863656564730000000000000000000000000000600082015250565b6000612306601283611ae9565b9150612311826122d0565b602082019050919050565b60006020820190508181036000830152612335816122f9565b9050919050565b600081905092915050565b600061235282611ade565b61235c818561233c565b935061236c818560208601611afa565b80840191505092915050565b60006123848285612347565b91506123908284612347565b91508190509392505050565b60008160601b9050919050565b60006123b48261239c565b9050919050565b60006123c6826123a9565b9050919050565b6123de6123d982611c1c565b6123bb565b82525050565b60006123f082846123cd565b60148201915081905092915050565b7f496e636f72726563742070726f6f660000000000000000000000000000000000600082015250565b6000612435600f83611ae9565b9150612440826123ff565b602082019050919050565b6000602082019050818103600083015261246481612428565b9050919050565b7f4f776e61626c653a206e6577206f776e657220697320746865207a65726f206160008201527f6464726573730000000000000000000000000000000000000000000000000000602082015250565b60006124c7602683611ae9565b91506124d28261246b565b604082019050919050565b600060208201905081810360008301526124f6816124ba565b9050919050565b7f4f776e61626c653a2063616c6c6572206973206e6f7420746865206f776e6572600082015250565b6000612533602083611ae9565b915061253e826124fd565b602082019050919050565b6000602082019050818103600083015261256281612526565b9050919050565b600081519050919050565b600082825260208201905092915050565b600061259082612569565b61259a8185612574565b93506125aa818560208601611afa565b6125b381611b2d565b840191505092915050565b60006080820190506125d36000830187611c2e565b6125e06020830186611c2e565b6125ed6040830185611cc4565b81810360608301526125ff8184612585565b905095945050505050565b60008151905061261981611a4f565b92915050565b60006020828403121561263557612634611a19565b5b60006126438482850161260a565b91505092915050565b7f4e487b7100000000000000000000000000000000000000000000000000000000600052603260045260246000fd5b600061268682611b99565b91507fffffffffffffffffffffffffffffffffffffffffffffffffffffffffffffffff82036126b8576126b761224b565b5b60018201905091905056fea26469706673582212201e9c55407daca647fb7b2dc8e6b6f25a364e0d8db13df4c29e1dca647013e39d64736f6c634300080d0033",
  "immutableReferences": {},
  "source": "// File: erc721a/contracts/IERC721A.sol\n\n// SPDX-License-Identifier: MIT\n// ERC721A Contracts v4.2.2\n// Creator: Chiru Labs\n\npragma solidity ^0.8.4;\n\n/**\n * @dev Interface of ERC721A.\n */\ninterface IERC721A {\n    /**\n     * The caller must own the token or be an approved operator.\n     */\n    error ApprovalCallerNotOwnerNorApproved();\n\n    /**\n     * The token does not exist.\n     */\n    error ApprovalQueryForNonexistentToken();\n\n    /**\n     * The caller cannot approve to their own address.\n     */\n    error ApproveToCaller();\n\n    /**\n     * Cannot query the balance for the zero address.\n     */\n    error BalanceQueryForZeroAddress();\n\n    /**\n     * Cannot mint to the zero address.\n     */\n    error MintToZeroAddress();\n\n    /**\n     * The quantity of tokens minted must be more than zero.\n     */\n    error MintZeroQuantity();\n\n    /**\n     * The token does not exist.\n     */\n    error OwnerQueryForNonexistentToken();\n\n    /**\n     * The caller must own the token or be an approved operator.\n     */\n    error TransferCallerNotOwnerNorApproved();\n\n    /**\n     * The token must be owned by `from`.\n     */\n    error TransferFromIncorrectOwner();\n\n    /**\n     * Cannot safely transfer to a contract that does not implement the\n     * ERC721Receiver interface.\n     */\n    error TransferToNonERC721ReceiverImplementer();\n\n    /**\n     * Cannot transfer to the zero address.\n     */\n    error TransferToZeroAddress();\n\n    /**\n     * The token does not exist.\n     */\n    error URIQueryForNonexistentToken();\n\n    /**\n     * The `quantity` minted with ERC2309 exceeds the safety limit.\n     */\n    error MintERC2309QuantityExceedsLimit();\n\n    /**\n     * The `extraData` cannot be set on an unintialized ownership slot.\n     */\n    error OwnershipNotInitializedForExtraData();\n\n    // =============================================================\n    //                            STRUCTS\n    // =============================================================\n\n    struct TokenOwnership {\n        // The address of the owner.\n        address addr;\n        // Stores the start time of ownership with minimal overhead for tokenomics.\n        uint64 startTimestamp;\n        // Whether the token has been burned.\n        bool burned;\n        // Arbitrary data similar to `startTimestamp` that can be set via {_extraData}.\n        uint24 extraData;\n    }\n\n    // =============================================================\n    //                         TOKEN COUNTERS\n    // =============================================================\n\n    /**\n     * @dev Returns the total number of tokens in existence.\n     * Burned tokens will reduce the count.\n     * To get the total number of tokens minted, please see {_totalMinted}.\n     */\n    function totalSupply() external view returns (uint256);\n\n    // =============================================================\n    //                            IERC165\n    // =============================================================\n\n    /**\n     * @dev Returns true if this contract implements the interface defined by\n     * `interfaceId`. See the corresponding\n     * [EIP section](https://eips.ethereum.org/EIPS/eip-165#how-interfaces-are-identified)\n     * to learn more about how these ids are created.\n     *\n     * This function call must use less than 30000 gas.\n     */\n    function supportsInterface(bytes4 interfaceId) external view returns (bool);\n\n    // =============================================================\n    //                            IERC721\n    // =============================================================\n\n    /**\n     * @dev Emitted when `tokenId` token is transferred from `from` to `to`.\n     */\n    event Transfer(address indexed from, address indexed to, uint256 indexed tokenId);\n\n    /**\n     * @dev Emitted when `owner` enables `approved` to manage the `tokenId` token.\n     */\n    event Approval(address indexed owner, address indexed approved, uint256 indexed tokenId);\n\n    /**\n     * @dev Emitted when `owner` enables or disables\n     * (`approved`) `operator` to manage all of its assets.\n     */\n    event ApprovalForAll(address indexed owner, address indexed operator, bool approved);\n\n    /**\n     * @dev Returns the number of tokens in `owner`'s account.\n     */\n    function balanceOf(address owner) external view returns (uint256 balance);\n\n    /**\n     * @dev Returns the owner of the `tokenId` token.\n     *\n     * Requirements:\n     *\n     * - `tokenId` must exist.\n     */\n    function ownerOf(uint256 tokenId) external view returns (address owner);\n\n    /**\n     * @dev Safely transfers `tokenId` token from `from` to `to`,\n     * checking first that contract recipients are aware of the ERC721 protocol\n     * to prevent tokens from being forever locked.\n     *\n     * Requirements:\n     *\n     * - `from` cannot be the zero address.\n     * - `to` cannot be the zero address.\n     * - `tokenId` token must exist and be owned by `from`.\n     * - If the caller is not `from`, it must be have been allowed to move\n     * this token by either {approve} or {setApprovalForAll}.\n     * - If `to` refers to a smart contract, it must implement\n     * {IERC721Receiver-onERC721Received}, which is called upon a safe transfer.\n     *\n     * Emits a {Transfer} event.\n     */\n    function safeTransferFrom(\n        address from,\n        address to,\n        uint256 tokenId,\n        bytes calldata data\n    ) external;\n\n    /**\n     * @dev Equivalent to `safeTransferFrom(from, to, tokenId, '')`.\n     */\n    function safeTransferFrom(\n        address from,\n        address to,\n        uint256 tokenId\n    ) external;\n\n    /**\n     * @dev Transfers `tokenId` from `from` to `to`.\n     *\n     * WARNING: Usage of this method is discouraged, use {safeTransferFrom}\n     * whenever possible.\n     *\n     * Requirements:\n     *\n     * - `from` cannot be the zero address.\n     * - `to` cannot be the zero address.\n     * - `tokenId` token must be owned by `from`.\n     * - If the caller is not `from`, it must be approved to move this token\n     * by either {approve} or {setApprovalForAll}.\n     *\n     * Emits a {Transfer} event.\n     */\n    function transferFrom(\n        address from,\n        address to,\n        uint256 tokenId\n    ) external;\n\n    /**\n     * @dev Gives permission to `to` to transfer `tokenId` token to another account.\n     * The approval is cleared when the token is transferred.\n     *\n     * Only a single account can be approved at a time, so approving the\n     * zero address clears previous approvals.\n     *\n     * Requirements:\n     *\n     * - The caller must own the token or be an approved operator.\n     * - `tokenId` must exist.\n     *\n     * Emits an {Approval} event.\n     */\n    function approve(address to, uint256 tokenId) external;\n\n    /**\n     * @dev Approve or remove `operator` as an operator for the caller.\n     * Operators can call {transferFrom} or {safeTransferFrom}\n     * for any token owned by the caller.\n     *\n     * Requirements:\n     *\n     * - The `operator` cannot be the caller.\n     *\n     * Emits an {ApprovalForAll} event.\n     */\n    function setApprovalForAll(address operator, bool _approved) external;\n\n    /**\n     * @dev Returns the account approved for `tokenId` token.\n     *\n     * Requirements:\n     *\n     * - `tokenId` must exist.\n     */\n    function getApproved(uint256 tokenId) external view returns (address operator);\n\n    /**\n     * @dev Returns if the `operator` is allowed to manage all of the assets of `owner`.\n     *\n     * See {setApprovalForAll}.\n     */\n    function isApprovedForAll(address owner, address operator) external view returns (bool);\n\n    // =============================================================\n    //                        IERC721Metadata\n    // =============================================================\n\n    /**\n     * @dev Returns the token collection name.\n     */\n    function name() external view returns (string memory);\n\n    /**\n     * @dev Returns the token collection symbol.\n     */\n    function symbol() external view returns (string memory);\n\n    /**\n     * @dev Returns the Uniform Resource Identifier (URI) for `tokenId` token.\n     */\n    function tokenURI(uint256 tokenId) external view returns (string memory);\n\n    // =============================================================\n    //                           IERC2309\n    // =============================================================\n\n    /**\n     * @dev Emitted when tokens in `fromTokenId` to `toTokenId`\n     * (inclusive) is transferred from `from` to `to`, as defined in the\n     * [ERC2309](https://eips.ethereum.org/EIPS/eip-2309) standard.\n     *\n     * See {_mintERC2309} for more details.\n     */\n    event ConsecutiveTransfer(uint256 indexed fromTokenId, uint256 toTokenId, address indexed from, address indexed to);\n}\n\n// File: erc721a/contracts/ERC721A.sol\n\n// ERC721A Contracts v4.2.2\n// Creator: Chiru Labs\n\n\n\n/**\n * @dev Interface of ERC721 token receiver.\n */\ninterface ERC721A__IERC721Receiver {\n    function onERC721Received(\n        address operator,\n        address from,\n        uint256 tokenId,\n        bytes calldata data\n    ) external returns (bytes4);\n}\n\n/**\n * @title ERC721A\n *\n * @dev Implementation of the [ERC721](https://eips.ethereum.org/EIPS/eip-721)\n * Non-Fungible Token Standard, including the Metadata extension.\n * Optimized for lower gas during batch mints.\n *\n * Token IDs are minted in sequential order (e.g. 0, 1, 2, 3, ...)\n * starting from `_startTokenId()`.\n *\n * Assumptions:\n *\n * - An owner cannot have more than 2**64 - 1 (max value of uint64) of supply.\n * - The maximum token ID cannot exceed 2**256 - 1 (max value of uint256).\n */\ncontract ERC721A is IERC721A {\n    // Reference type for token approval.\n    struct TokenApprovalRef {\n        address value;\n    }\n\n    // =============================================================\n    //                           CONSTANTS\n    // =============================================================\n\n    // Mask of an entry in packed address data.\n    uint256 private constant _BITMASK_ADDRESS_DATA_ENTRY = (1 << 64) - 1;\n\n    // The bit position of `numberMinted` in packed address data.\n    uint256 private constant _BITPOS_NUMBER_MINTED = 64;\n\n    // The bit position of `numberBurned` in packed address data.\n    uint256 private constant _BITPOS_NUMBER_BURNED = 128;\n\n    // The bit position of `aux` in packed address data.\n    uint256 private constant _BITPOS_AUX = 192;\n\n    // Mask of all 256 bits in packed address data except the 64 bits for `aux`.\n    uint256 private constant _BITMASK_AUX_COMPLEMENT = (1 << 192) - 1;\n\n    // The bit position of `startTimestamp` in packed ownership.\n    uint256 private constant _BITPOS_START_TIMESTAMP = 160;\n\n    // The bit mask of the `burned` bit in packed ownership.\n    uint256 private constant _BITMASK_BURNED = 1 << 224;\n\n    // The bit position of the `nextInitialized` bit in packed ownership.\n    uint256 private constant _BITPOS_NEXT_INITIALIZED = 225;\n\n    // The bit mask of the `nextInitialized` bit in packed ownership.\n    uint256 private constant _BITMASK_NEXT_INITIALIZED = 1 << 225;\n\n    // The bit position of `extraData` in packed ownership.\n    uint256 private constant _BITPOS_EXTRA_DATA = 232;\n\n    // Mask of all 256 bits in a packed ownership except the 24 bits for `extraData`.\n    uint256 private constant _BITMASK_EXTRA_DATA_COMPLEMENT = (1 << 232) - 1;\n\n    // The mask of the lower 160 bits for addresses.\n    uint256 private constant _BITMASK_ADDRESS = (1 << 160) - 1;\n\n    // The maximum `quantity` that can be minted with {_mintERC2309}.\n    // This limit is to prevent overflows on the address data entries.\n    // For a limit of 5000, a total of 3.689e15 calls to {_mintERC2309}\n    // is required to cause an overflow, which is unrealistic.\n    uint256 private constant _MAX_MINT_ERC2309_QUANTITY_LIMIT = 5000;\n\n    // The `Transfer` event signature is given by:\n    // `keccak256(bytes(\"Transfer(address,address,uint256)\"))`.\n    bytes32 private constant _TRANSFER_EVENT_SIGNATURE =\n        0xddf252ad1be2c89b69c2b068fc378daa952ba7f163c4a11628f55a4df523b3ef;\n\n    // =============================================================\n    //                            STORAGE\n    // =============================================================\n\n    // The next token ID to be minted.\n    uint256 private _currentIndex;\n\n    // The number of tokens burned.\n    uint256 private _burnCounter;\n\n    // Token name\n    string private _name;\n\n    // Token symbol\n    string private _symbol;\n\n    // Mapping from token ID to ownership details\n    // An empty struct value does not necessarily mean the token is unowned.\n    // See {_packedOwnershipOf} implementation for details.\n    //\n    // Bits Layout:\n    // - [0..159]   `addr`\n    // - [160..223] `startTimestamp`\n    // - [224]      `burned`\n    // - [225]      `nextInitialized`\n    // - [232..255] `extraData`\n    mapping(uint256 => uint256) private _packedOwnerships;\n\n    // Mapping owner address to address data.\n    //\n    // Bits Layout:\n    // - [0..63]    `balance`\n    // - [64..127]  `numberMinted`\n    // - [128..191] `numberBurned`\n    // - [192..255] `aux`\n    mapping(address => uint256) private _packedAddressData;\n\n    // Mapping from token ID to approved address.\n    mapping(uint256 => TokenApprovalRef) private _tokenApprovals;\n\n    // Mapping from owner to operator approvals\n    mapping(address => mapping(address => bool)) private _operatorApprovals;\n\n    // =============================================================\n    //                          CONSTRUCTOR\n    // =============================================================\n\n    constructor(string memory name_, string memory symbol_) {\n        _name = name_;\n        _symbol = symbol_;\n        _currentIndex = _startTokenId();\n    }\n\n    // =============================================================\n    //                   TOKEN COUNTING OPERATIONS\n    // =============================================================\n\n    /**\n     * @dev Returns the starting token ID.\n     * To change the starting token ID, please override this function.\n     */\n    function _startTokenId() internal view virtual returns (uint256) {\n        return 0;\n    }\n\n    /**\n     * @dev Returns the next token ID to be minted.\n     */\n    function _nextTokenId() internal view virtual returns (uint256) {\n        return _currentIndex;\n    }\n\n    /**\n     * @dev Returns the total number of tokens in existence.\n     * Burned tokens will reduce the count.\n     * To get the total number of tokens minted, please see {_totalMinted}.\n     */\n    function totalSupply() public view virtual override returns (uint256) {\n        // Counter underflow is impossible as _burnCounter cannot be incremented\n        // more than `_currentIndex - _startTokenId()` times.\n        unchecked {\n            return _currentIndex - _burnCounter - _startTokenId();\n        }\n    }\n\n    /**\n     * @dev Returns the total amount of tokens minted in the contract.\n     */\n    function _totalMinted() internal view virtual returns (uint256) {\n        // Counter underflow is impossible as `_currentIndex` does not decrement,\n        // and it is initialized to `_startTokenId()`.\n        unchecked {\n            return _currentIndex - _startTokenId();\n        }\n    }\n\n    /**\n     * @dev Returns the total number of tokens burned.\n     */\n    function _totalBurned() internal view virtual returns (uint256) {\n        return _burnCounter;\n    }\n\n    // =============================================================\n    //                    ADDRESS DATA OPERATIONS\n    // =============================================================\n\n    /**\n     * @dev Returns the number of tokens in `owner`'s account.\n     */\n    function balanceOf(address owner) public view virtual override returns (uint256) {\n        if (owner == address(0)) revert BalanceQueryForZeroAddress();\n        return _packedAddressData[owner] & _BITMASK_ADDRESS_DATA_ENTRY;\n    }\n\n    /**\n     * Returns the number of tokens minted by `owner`.\n     */\n    function _numberMinted(address owner) internal view returns (uint256) {\n        return (_packedAddressData[owner] >> _BITPOS_NUMBER_MINTED) & _BITMASK_ADDRESS_DATA_ENTRY;\n    }\n\n    /**\n     * Returns the number of tokens burned by or on behalf of `owner`.\n     */\n    function _numberBurned(address owner) internal view returns (uint256) {\n        return (_packedAddressData[owner] >> _BITPOS_NUMBER_BURNED) & _BITMASK_ADDRESS_DATA_ENTRY;\n    }\n\n    /**\n     * Returns the auxiliary data for `owner`. (e.g. number of whitelist mint slots used).\n     */\n    function _getAux(address owner) internal view returns (uint64) {\n        return uint64(_packedAddressData[owner] >> _BITPOS_AUX);\n    }\n\n    /**\n     * Sets the auxiliary data for `owner`. (e.g. number of whitelist mint slots used).\n     * If there are multiple variables, please pack them into a uint64.\n     */\n    function _setAux(address owner, uint64 aux) internal virtual {\n        uint256 packed = _packedAddressData[owner];\n        uint256 auxCasted;\n        // Cast `aux` with assembly to avoid redundant masking.\n        assembly {\n            auxCasted := aux\n        }\n        packed = (packed & _BITMASK_AUX_COMPLEMENT) | (auxCasted << _BITPOS_AUX);\n        _packedAddressData[owner] = packed;\n    }\n\n    // =============================================================\n    //                            IERC165\n    // =============================================================\n\n    /**\n     * @dev Returns true if this contract implements the interface defined by\n     * `interfaceId`. See the corresponding\n     * [EIP section](https://eips.ethereum.org/EIPS/eip-165#how-interfaces-are-identified)\n     * to learn more about how these ids are created.\n     *\n     * This function call must use less than 30000 gas.\n     */\n    function supportsInterface(bytes4 interfaceId) public view virtual override returns (bool) {\n        // The interface IDs are constants representing the first 4 bytes\n        // of the XOR of all function selectors in the interface.\n        // See: [ERC165](https://eips.ethereum.org/EIPS/eip-165)\n        // (e.g. `bytes4(i.functionA.selector ^ i.functionB.selector ^ ...)`)\n        return\n            interfaceId == 0x01ffc9a7 || // ERC165 interface ID for ERC165.\n            interfaceId == 0x80ac58cd || // ERC165 interface ID for ERC721.\n            interfaceId == 0x5b5e139f; // ERC165 interface ID for ERC721Metadata.\n    }\n\n    // =============================================================\n    //                        IERC721Metadata\n    // =============================================================\n\n    /**\n     * @dev Returns the token collection name.\n     */\n    function name() public view virtual override returns (string memory) {\n        return _name;\n    }\n\n    /**\n     * @dev Returns the token collection symbol.\n     */\n    function symbol() public view virtual override returns (string memory) {\n        return _symbol;\n    }\n\n    /**\n     * @dev Returns the Uniform Resource Identifier (URI) for `tokenId` token.\n     */\n    function tokenURI(uint256 tokenId) public view virtual override returns (string memory) {\n        if (!_exists(tokenId)) revert URIQueryForNonexistentToken();\n\n        string memory baseURI = _baseURI();\n        return bytes(baseURI).length != 0 ? string(abi.encodePacked(baseURI, _toString(tokenId))) : '';\n    }\n\n    /**\n     * @dev Base URI for computing {tokenURI}. If set, the resulting URI for each\n     * token will be the concatenation of the `baseURI` and the `tokenId`. Empty\n     * by default, it can be overridden in child contracts.\n     */\n    function _baseURI() internal view virtual returns (string memory) {\n        return '';\n    }\n\n    // =============================================================\n    //                     OWNERSHIPS OPERATIONS\n    // =============================================================\n\n    /**\n     * @dev Returns the owner of the `tokenId` token.\n     *\n     * Requirements:\n     *\n     * - `tokenId` must exist.\n     */\n    function ownerOf(uint256 tokenId) public view virtual override returns (address) {\n        return address(uint160(_packedOwnershipOf(tokenId)));\n    }\n\n    /**\n     * @dev Gas spent here starts off proportional to the maximum mint batch size.\n     * It gradually moves to O(1) as tokens get transferred around over time.\n     */\n    function _ownershipOf(uint256 tokenId) internal view virtual returns (TokenOwnership memory) {\n        return _unpackedOwnership(_packedOwnershipOf(tokenId));\n    }\n\n    /**\n     * @dev Returns the unpacked `TokenOwnership` struct at `index`.\n     */\n    function _ownershipAt(uint256 index) internal view virtual returns (TokenOwnership memory) {\n        return _unpackedOwnership(_packedOwnerships[index]);\n    }\n\n    /**\n     * @dev Initializes the ownership slot minted at `index` for efficiency purposes.\n     */\n    function _initializeOwnershipAt(uint256 index) internal virtual {\n        if (_packedOwnerships[index] == 0) {\n            _packedOwnerships[index] = _packedOwnershipOf(index);\n        }\n    }\n\n    /**\n     * Returns the packed ownership data of `tokenId`.\n     */\n    function _packedOwnershipOf(uint256 tokenId) private view returns (uint256) {\n        uint256 curr = tokenId;\n\n        unchecked {\n            if (_startTokenId() <= curr)\n                if (curr < _currentIndex) {\n                    uint256 packed = _packedOwnerships[curr];\n                    // If not burned.\n                    if (packed & _BITMASK_BURNED == 0) {\n                        // Invariant:\n                        // There will always be an initialized ownership slot\n                        // (i.e. `ownership.addr != address(0) && ownership.burned == false`)\n                        // before an unintialized ownership slot\n                        // (i.e. `ownership.addr == address(0) && ownership.burned == false`)\n                        // Hence, `curr` will not underflow.\n                        //\n                        // We can directly compare the packed value.\n                        // If the address is zero, packed will be zero.\n                        while (packed == 0) {\n                            packed = _packedOwnerships[--curr];\n                        }\n                        return packed;\n                    }\n                }\n        }\n        revert OwnerQueryForNonexistentToken();\n    }\n\n    /**\n     * @dev Returns the unpacked `TokenOwnership` struct from `packed`.\n     */\n    function _unpackedOwnership(uint256 packed) private pure returns (TokenOwnership memory ownership) {\n        ownership.addr = address(uint160(packed));\n        ownership.startTimestamp = uint64(packed >> _BITPOS_START_TIMESTAMP);\n        ownership.burned = packed & _BITMASK_BURNED != 0;\n        ownership.extraData = uint24(packed >> _BITPOS_EXTRA_DATA);\n    }\n\n    /**\n     * @dev Packs ownership data into a single uint256.\n     */\n    function _packOwnershipData(address owner, uint256 flags) private view returns (uint256 result) {\n        assembly {\n            // Mask `owner` to the lower 160 bits, in case the upper bits somehow aren't clean.\n            owner := and(owner, _BITMASK_ADDRESS)\n            // `owner | (block.timestamp << _BITPOS_START_TIMESTAMP) | flags`.\n            result := or(owner, or(shl(_BITPOS_START_TIMESTAMP, timestamp()), flags))\n        }\n    }\n\n    /**\n     * @dev Returns the `nextInitialized` flag set if `quantity` equals 1.\n     */\n    function _nextInitializedFlag(uint256 quantity) private pure returns (uint256 result) {\n        // For branchless setting of the `nextInitialized` flag.\n        assembly {\n            // `(quantity == 1) << _BITPOS_NEXT_INITIALIZED`.\n            result := shl(_BITPOS_NEXT_INITIALIZED, eq(quantity, 1))\n        }\n    }\n\n    // =============================================================\n    //                      APPROVAL OPERATIONS\n    // =============================================================\n\n    /**\n     * @dev Gives permission to `to` to transfer `tokenId` token to another account.\n     * The approval is cleared when the token is transferred.\n     *\n     * Only a single account can be approved at a time, so approving the\n     * zero address clears previous approvals.\n     *\n     * Requirements:\n     *\n     * - The caller must own the token or be an approved operator.\n     * - `tokenId` must exist.\n     *\n     * Emits an {Approval} event.\n     */\n    function approve(address to, uint256 tokenId) public virtual override {\n        address owner = ownerOf(tokenId);\n\n        if (_msgSenderERC721A() != owner)\n            if (!isApprovedForAll(owner, _msgSenderERC721A())) {\n                revert ApprovalCallerNotOwnerNorApproved();\n            }\n\n        _tokenApprovals[tokenId].value = to;\n        emit Approval(owner, to, tokenId);\n    }\n\n    /**\n     * @dev Returns the account approved for `tokenId` token.\n     *\n     * Requirements:\n     *\n     * - `tokenId` must exist.\n     */\n    function getApproved(uint256 tokenId) public view virtual override returns (address) {\n        if (!_exists(tokenId)) revert ApprovalQueryForNonexistentToken();\n\n        return _tokenApprovals[tokenId].value;\n    }\n\n    /**\n     * @dev Approve or remove `operator` as an operator for the caller.\n     * Operators can call {transferFrom} or {safeTransferFrom}\n     * for any token owned by the caller.\n     *\n     * Requirements:\n     *\n     * - The `operator` cannot be the caller.\n     *\n     * Emits an {ApprovalForAll} event.\n     */\n    function setApprovalForAll(address operator, bool approved) public virtual override {\n        if (operator == _msgSenderERC721A()) revert ApproveToCaller();\n\n        _operatorApprovals[_msgSenderERC721A()][operator] = approved;\n        emit ApprovalForAll(_msgSenderERC721A(), operator, approved);\n    }\n\n    /**\n     * @dev Returns if the `operator` is allowed to manage all of the assets of `owner`.\n     *\n     * See {setApprovalForAll}.\n     */\n    function isApprovedForAll(address owner, address operator) public view virtual override returns (bool) {\n        return _operatorApprovals[owner][operator];\n    }\n\n    /**\n     * @dev Returns whether `tokenId` exists.\n     *\n     * Tokens can be managed by their owner or approved accounts via {approve} or {setApprovalForAll}.\n     *\n     * Tokens start existing when they are minted. See {_mint}.\n     */\n    function _exists(uint256 tokenId) internal view virtual returns (bool) {\n        return\n            _startTokenId() <= tokenId &&\n            tokenId < _currentIndex && // If within bounds,\n            _packedOwnerships[tokenId] & _BITMASK_BURNED == 0; // and not burned.\n    }\n\n    /**\n     * @dev Returns whether `msgSender` is equal to `approvedAddress` or `owner`.\n     */\n    function _isSenderApprovedOrOwner(\n        address approvedAddress,\n        address owner,\n        address msgSender\n    ) private pure returns (bool result) {\n        assembly {\n            // Mask `owner` to the lower 160 bits, in case the upper bits somehow aren't clean.\n            owner := and(owner, _BITMASK_ADDRESS)\n            // Mask `msgSender` to the lower 160 bits, in case the upper bits somehow aren't clean.\n            msgSender := and(msgSender, _BITMASK_ADDRESS)\n            // `msgSender == owner || msgSender == approvedAddress`.\n            result := or(eq(msgSender, owner), eq(msgSender, approvedAddress))\n        }\n    }\n\n    /**\n     * @dev Returns the storage slot and value for the approved address of `tokenId`.\n     */\n    function _getApprovedSlotAndAddress(uint256 tokenId)\n        private\n        view\n        returns (uint256 approvedAddressSlot, address approvedAddress)\n    {\n        TokenApprovalRef storage tokenApproval = _tokenApprovals[tokenId];\n        // The following is equivalent to `approvedAddress = _tokenApprovals[tokenId]`.\n        assembly {\n            approvedAddressSlot := tokenApproval.slot\n            approvedAddress := sload(approvedAddressSlot)\n        }\n    }\n\n    // =============================================================\n    //                      TRANSFER OPERATIONS\n    // =============================================================\n\n    /**\n     * @dev Transfers `tokenId` from `from` to `to`.\n     *\n     * Requirements:\n     *\n     * - `from` cannot be the zero address.\n     * - `to` cannot be the zero address.\n     * - `tokenId` token must be owned by `from`.\n     * - If the caller is not `from`, it must be approved to move this token\n     * by either {approve} or {setApprovalForAll}.\n     *\n     * Emits a {Transfer} event.\n     */\n    function transferFrom(\n        address from,\n        address to,\n        uint256 tokenId\n    ) public virtual override {\n        uint256 prevOwnershipPacked = _packedOwnershipOf(tokenId);\n\n        if (address(uint160(prevOwnershipPacked)) != from) revert TransferFromIncorrectOwner();\n\n        (uint256 approvedAddressSlot, address approvedAddress) = _getApprovedSlotAndAddress(tokenId);\n\n        // The nested ifs save around 20+ gas over a compound boolean condition.\n        if (!_isSenderApprovedOrOwner(approvedAddress, from, _msgSenderERC721A()))\n            if (!isApprovedForAll(from, _msgSenderERC721A())) revert TransferCallerNotOwnerNorApproved();\n\n        if (to == address(0)) revert TransferToZeroAddress();\n\n        _beforeTokenTransfers(from, to, tokenId, 1);\n\n        // Clear approvals from the previous owner.\n        assembly {\n            if approvedAddress {\n                // This is equivalent to `delete _tokenApprovals[tokenId]`.\n                sstore(approvedAddressSlot, 0)\n            }\n        }\n\n        // Underflow of the sender's balance is impossible because we check for\n        // ownership above and the recipient's balance can't realistically overflow.\n        // Counter overflow is incredibly unrealistic as `tokenId` would have to be 2**256.\n        unchecked {\n            // We can directly increment and decrement the balances.\n            --_packedAddressData[from]; // Updates: `balance -= 1`.\n            ++_packedAddressData[to]; // Updates: `balance += 1`.\n\n            // Updates:\n            // - `address` to the next owner.\n            // - `startTimestamp` to the timestamp of transfering.\n            // - `burned` to `false`.\n            // - `nextInitialized` to `true`.\n            _packedOwnerships[tokenId] = _packOwnershipData(\n                to,\n                _BITMASK_NEXT_INITIALIZED | _nextExtraData(from, to, prevOwnershipPacked)\n            );\n\n            // If the next slot may not have been initialized (i.e. `nextInitialized == false`) .\n            if (prevOwnershipPacked & _BITMASK_NEXT_INITIALIZED == 0) {\n                uint256 nextTokenId = tokenId + 1;\n                // If the next slot's address is zero and not burned (i.e. packed value is zero).\n                if (_packedOwnerships[nextTokenId] == 0) {\n                    // If the next slot is within bounds.\n                    if (nextTokenId != _currentIndex) {\n                        // Initialize the next slot to maintain correctness for `ownerOf(tokenId + 1)`.\n                        _packedOwnerships[nextTokenId] = prevOwnershipPacked;\n                    }\n                }\n            }\n        }\n\n        emit Transfer(from, to, tokenId);\n        _afterTokenTransfers(from, to, tokenId, 1);\n    }\n\n    /**\n     * @dev Equivalent to `safeTransferFrom(from, to, tokenId, '')`.\n     */\n    function safeTransferFrom(\n        address from,\n        address to,\n        uint256 tokenId\n    ) public virtual override {\n        safeTransferFrom(from, to, tokenId, '');\n    }\n\n    /**\n     * @dev Safely transfers `tokenId` token from `from` to `to`.\n     *\n     * Requirements:\n     *\n     * - `from` cannot be the zero address.\n     * - `to` cannot be the zero address.\n     * - `tokenId` token must exist and be owned by `from`.\n     * - If the caller is not `from`, it must be approved to move this token\n     * by either {approve} or {setApprovalForAll}.\n     * - If `to` refers to a smart contract, it must implement\n     * {IERC721Receiver-onERC721Received}, which is called upon a safe transfer.\n     *\n     * Emits a {Transfer} event.\n     */\n    function safeTransferFrom(\n        address from,\n        address to,\n        uint256 tokenId,\n        bytes memory _data\n    ) public virtual override {\n        transferFrom(from, to, tokenId);\n        if (to.code.length != 0)\n            if (!_checkContractOnERC721Received(from, to, tokenId, _data)) {\n                revert TransferToNonERC721ReceiverImplementer();\n            }\n    }\n\n    /**\n     * @dev Hook that is called before a set of serially-ordered token IDs\n     * are about to be transferred. This includes minting.\n     * And also called before burning one token.\n     *\n     * `startTokenId` - the first token ID to be transferred.\n     * `quantity` - the amount to be transferred.\n     *\n     * Calling conditions:\n     *\n     * - When `from` and `to` are both non-zero, `from`'s `tokenId` will be\n     * transferred to `to`.\n     * - When `from` is zero, `tokenId` will be minted for `to`.\n     * - When `to` is zero, `tokenId` will be burned by `from`.\n     * - `from` and `to` are never both zero.\n     */\n    function _beforeTokenTransfers(\n        address from,\n        address to,\n        uint256 startTokenId,\n        uint256 quantity\n    ) internal virtual {}\n\n    /**\n     * @dev Hook that is called after a set of serially-ordered token IDs\n     * have been transferred. This includes minting.\n     * And also called after one token has been burned.\n     *\n     * `startTokenId` - the first token ID to be transferred.\n     * `quantity` - the amount to be transferred.\n     *\n     * Calling conditions:\n     *\n     * - When `from` and `to` are both non-zero, `from`'s `tokenId` has been\n     * transferred to `to`.\n     * - When `from` is zero, `tokenId` has been minted for `to`.\n     * - When `to` is zero, `tokenId` has been burned by `from`.\n     * - `from` and `to` are never both zero.\n     */\n    function _afterTokenTransfers(\n        address from,\n        address to,\n        uint256 startTokenId,\n        uint256 quantity\n    ) internal virtual {}\n\n    /**\n     * @dev Private function to invoke {IERC721Receiver-onERC721Received} on a target contract.\n     *\n     * `from` - Previous owner of the given token ID.\n     * `to` - Target address that will receive the token.\n     * `tokenId` - Token ID to be transferred.\n     * `_data` - Optional data to send along with the call.\n     *\n     * Returns whether the call correctly returned the expected magic value.\n     */\n    function _checkContractOnERC721Received(\n        address from,\n        address to,\n        uint256 tokenId,\n        bytes memory _data\n    ) private returns (bool) {\n        try ERC721A__IERC721Receiver(to).onERC721Received(_msgSenderERC721A(), from, tokenId, _data) returns (\n            bytes4 retval\n        ) {\n            return retval == ERC721A__IERC721Receiver(to).onERC721Received.selector;\n        } catch (bytes memory reason) {\n            if (reason.length == 0) {\n                revert TransferToNonERC721ReceiverImplementer();\n            } else {\n                assembly {\n                    revert(add(32, reason), mload(reason))\n                }\n            }\n        }\n    }\n\n    // =============================================================\n    //                        MINT OPERATIONS\n    // =============================================================\n\n    /**\n     * @dev Mints `quantity` tokens and transfers them to `to`.\n     *\n     * Requirements:\n     *\n     * - `to` cannot be the zero address.\n     * - `quantity` must be greater than 0.\n     *\n     * Emits a {Transfer} event for each mint.\n     */\n    function _mint(address to, uint256 quantity) internal virtual {\n        uint256 startTokenId = _currentIndex;\n        if (quantity == 0) revert MintZeroQuantity();\n\n        _beforeTokenTransfers(address(0), to, startTokenId, quantity);\n\n        // Overflows are incredibly unrealistic.\n        // `balance` and `numberMinted` have a maximum limit of 2**64.\n        // `tokenId` has a maximum limit of 2**256.\n        unchecked {\n            // Updates:\n            // - `balance += quantity`.\n            // - `numberMinted += quantity`.\n            //\n            // We can directly add to the `balance` and `numberMinted`.\n            _packedAddressData[to] += quantity * ((1 << _BITPOS_NUMBER_MINTED) | 1);\n\n            // Updates:\n            // - `address` to the owner.\n            // - `startTimestamp` to the timestamp of minting.\n            // - `burned` to `false`.\n            // - `nextInitialized` to `quantity == 1`.\n            _packedOwnerships[startTokenId] = _packOwnershipData(\n                to,\n                _nextInitializedFlag(quantity) | _nextExtraData(address(0), to, 0)\n            );\n\n            uint256 toMasked;\n            uint256 end = startTokenId + quantity;\n\n            // Use assembly to loop and emit the `Transfer` event for gas savings.\n            assembly {\n                // Mask `to` to the lower 160 bits, in case the upper bits somehow aren't clean.\n                toMasked := and(to, _BITMASK_ADDRESS)\n                // Emit the `Transfer` event.\n                log4(\n                    0, // Start of data (0, since no data).\n                    0, // End of data (0, since no data).\n                    _TRANSFER_EVENT_SIGNATURE, // Signature.\n                    0, // `address(0)`.\n                    toMasked, // `to`.\n                    startTokenId // `tokenId`.\n                )\n\n                for {\n                    let tokenId := add(startTokenId, 1)\n                } iszero(eq(tokenId, end)) {\n                    tokenId := add(tokenId, 1)\n                } {\n                    // Emit the `Transfer` event. Similar to above.\n                    log4(0, 0, _TRANSFER_EVENT_SIGNATURE, 0, toMasked, tokenId)\n                }\n            }\n            if (toMasked == 0) revert MintToZeroAddress();\n\n            _currentIndex = end;\n        }\n        _afterTokenTransfers(address(0), to, startTokenId, quantity);\n    }\n\n    /**\n     * @dev Mints `quantity` tokens and transfers them to `to`.\n     *\n     * This function is intended for efficient minting only during contract creation.\n     *\n     * It emits only one {ConsecutiveTransfer} as defined in\n     * [ERC2309](https://eips.ethereum.org/EIPS/eip-2309),\n     * instead of a sequence of {Transfer} event(s).\n     *\n     * Calling this function outside of contract creation WILL make your contract\n     * non-compliant with the ERC721 standard.\n     * For full ERC721 compliance, substituting ERC721 {Transfer} event(s) with the ERC2309\n     * {ConsecutiveTransfer} event is only permissible during contract creation.\n     *\n     * Requirements:\n     *\n     * - `to` cannot be the zero address.\n     * - `quantity` must be greater than 0.\n     *\n     * Emits a {ConsecutiveTransfer} event.\n     */\n    function _mintERC2309(address to, uint256 quantity) internal virtual {\n        uint256 startTokenId = _currentIndex;\n        if (to == address(0)) revert MintToZeroAddress();\n        if (quantity == 0) revert MintZeroQuantity();\n        if (quantity > _MAX_MINT_ERC2309_QUANTITY_LIMIT) revert MintERC2309QuantityExceedsLimit();\n\n        _beforeTokenTransfers(address(0), to, startTokenId, quantity);\n\n        // Overflows are unrealistic due to the above check for `quantity` to be below the limit.\n        unchecked {\n            // Updates:\n            // - `balance += quantity`.\n            // - `numberMinted += quantity`.\n            //\n            // We can directly add to the `balance` and `numberMinted`.\n            _packedAddressData[to] += quantity * ((1 << _BITPOS_NUMBER_MINTED) | 1);\n\n            // Updates:\n            // - `address` to the owner.\n            // - `startTimestamp` to the timestamp of minting.\n            // - `burned` to `false`.\n            // - `nextInitialized` to `quantity == 1`.\n            _packedOwnerships[startTokenId] = _packOwnershipData(\n                to,\n                _nextInitializedFlag(quantity) | _nextExtraData(address(0), to, 0)\n            );\n\n            emit ConsecutiveTransfer(startTokenId, startTokenId + quantity - 1, address(0), to);\n\n            _currentIndex = startTokenId + quantity;\n        }\n        _afterTokenTransfers(address(0), to, startTokenId, quantity);\n    }\n\n    /**\n     * @dev Safely mints `quantity` tokens and transfers them to `to`.\n     *\n     * Requirements:\n     *\n     * - If `to` refers to a smart contract, it must implement\n     * {IERC721Receiver-onERC721Received}, which is called for each safe transfer.\n     * - `quantity` must be greater than 0.\n     *\n     * See {_mint}.\n     *\n     * Emits a {Transfer} event for each mint.\n     */\n    function _safeMint(\n        address to,\n        uint256 quantity,\n        bytes memory _data\n    ) internal virtual {\n        _mint(to, quantity);\n\n        unchecked {\n            if (to.code.length != 0) {\n                uint256 end = _currentIndex;\n                uint256 index = end - quantity;\n                do {\n                    if (!_checkContractOnERC721Received(address(0), to, index++, _data)) {\n                        revert TransferToNonERC721ReceiverImplementer();\n                    }\n                } while (index < end);\n                // Reentrancy protection.\n                if (_currentIndex != end) revert();\n            }\n        }\n    }\n\n    /**\n     * @dev Equivalent to `_safeMint(to, quantity, '')`.\n     */\n    function _safeMint(address to, uint256 quantity) internal virtual {\n        _safeMint(to, quantity, '');\n    }\n\n    // =============================================================\n    //                        BURN OPERATIONS\n    // =============================================================\n\n    /**\n     * @dev Equivalent to `_burn(tokenId, false)`.\n     */\n    function _burn(uint256 tokenId) internal virtual {\n        _burn(tokenId, false);\n    }\n\n    /**\n     * @dev Destroys `tokenId`.\n     * The approval is cleared when the token is burned.\n     *\n     * Requirements:\n     *\n     * - `tokenId` must exist.\n     *\n     * Emits a {Transfer} event.\n     */\n    function _burn(uint256 tokenId, bool approvalCheck) internal virtual {\n        uint256 prevOwnershipPacked = _packedOwnershipOf(tokenId);\n\n        address from = address(uint160(prevOwnershipPacked));\n\n        (uint256 approvedAddressSlot, address approvedAddress) = _getApprovedSlotAndAddress(tokenId);\n\n        if (approvalCheck) {\n            // The nested ifs save around 20+ gas over a compound boolean condition.\n            if (!_isSenderApprovedOrOwner(approvedAddress, from, _msgSenderERC721A()))\n                if (!isApprovedForAll(from, _msgSenderERC721A())) revert TransferCallerNotOwnerNorApproved();\n        }\n\n        _beforeTokenTransfers(from, address(0), tokenId, 1);\n\n        // Clear approvals from the previous owner.\n        assembly {\n            if approvedAddress {\n                // This is equivalent to `delete _tokenApprovals[tokenId]`.\n                sstore(approvedAddressSlot, 0)\n            }\n        }\n\n        // Underflow of the sender's balance is impossible because we check for\n        // ownership above and the recipient's balance can't realistically overflow.\n        // Counter overflow is incredibly unrealistic as `tokenId` would have to be 2**256.\n        unchecked {\n            // Updates:\n            // - `balance -= 1`.\n            // - `numberBurned += 1`.\n            //\n            // We can directly decrement the balance, and increment the number burned.\n            // This is equivalent to `packed -= 1; packed += 1 << _BITPOS_NUMBER_BURNED;`.\n            _packedAddressData[from] += (1 << _BITPOS_NUMBER_BURNED) - 1;\n\n            // Updates:\n            // - `address` to the last owner.\n            // - `startTimestamp` to the timestamp of burning.\n            // - `burned` to `true`.\n            // - `nextInitialized` to `true`.\n            _packedOwnerships[tokenId] = _packOwnershipData(\n                from,\n                (_BITMASK_BURNED | _BITMASK_NEXT_INITIALIZED) | _nextExtraData(from, address(0), prevOwnershipPacked)\n            );\n\n            // If the next slot may not have been initialized (i.e. `nextInitialized == false`) .\n            if (prevOwnershipPacked & _BITMASK_NEXT_INITIALIZED == 0) {\n                uint256 nextTokenId = tokenId + 1;\n                // If the next slot's address is zero and not burned (i.e. packed value is zero).\n                if (_packedOwnerships[nextTokenId] == 0) {\n                    // If the next slot is within bounds.\n                    if (nextTokenId != _currentIndex) {\n                        // Initialize the next slot to maintain correctness for `ownerOf(tokenId + 1)`.\n                        _packedOwnerships[nextTokenId] = prevOwnershipPacked;\n                    }\n                }\n            }\n        }\n\n        emit Transfer(from, address(0), tokenId);\n        _afterTokenTransfers(from, address(0), tokenId, 1);\n\n        // Overflow not possible, as _burnCounter cannot be exceed _currentIndex times.\n        unchecked {\n            _burnCounter++;\n        }\n    }\n\n    // =============================================================\n    //                     EXTRA DATA OPERATIONS\n    // =============================================================\n\n    /**\n     * @dev Directly sets the extra data for the ownership data `index`.\n     */\n    function _setExtraDataAt(uint256 index, uint24 extraData) internal virtual {\n        uint256 packed = _packedOwnerships[index];\n        if (packed == 0) revert OwnershipNotInitializedForExtraData();\n        uint256 extraDataCasted;\n        // Cast `extraData` with assembly to avoid redundant masking.\n        assembly {\n            extraDataCasted := extraData\n        }\n        packed = (packed & _BITMASK_EXTRA_DATA_COMPLEMENT) | (extraDataCasted << _BITPOS_EXTRA_DATA);\n        _packedOwnerships[index] = packed;\n    }\n\n    /**\n     * @dev Called during each token transfer to set the 24bit `extraData` field.\n     * Intended to be overridden by the cosumer contract.\n     *\n     * `previousExtraData` - the value of `extraData` before transfer.\n     *\n     * Calling conditions:\n     *\n     * - When `from` and `to` are both non-zero, `from`'s `tokenId` will be\n     * transferred to `to`.\n     * - When `from` is zero, `tokenId` will be minted for `to`.\n     * - When `to` is zero, `tokenId` will be burned by `from`.\n     * - `from` and `to` are never both zero.\n     */\n    function _extraData(\n        address from,\n        address to,\n        uint24 previousExtraData\n    ) internal view virtual returns (uint24) {}\n\n    /**\n     * @dev Returns the next extra data for the packed ownership data.\n     * The returned result is shifted into position.\n     */\n    function _nextExtraData(\n        address from,\n        address to,\n        uint256 prevOwnershipPacked\n    ) private view returns (uint256) {\n        uint24 extraData = uint24(prevOwnershipPacked >> _BITPOS_EXTRA_DATA);\n        return uint256(_extraData(from, to, extraData)) << _BITPOS_EXTRA_DATA;\n    }\n\n    // =============================================================\n    //                       OTHER OPERATIONS\n    // =============================================================\n\n    /**\n     * @dev Returns the message sender (defaults to `msg.sender`).\n     *\n     * If you are writing GSN compatible contracts, you need to override this function.\n     */\n    function _msgSenderERC721A() internal view virtual returns (address) {\n        return msg.sender;\n    }\n\n    /**\n     * @dev Converts a uint256 to its ASCII string decimal representation.\n     */\n    function _toString(uint256 value) internal pure virtual returns (string memory str) {\n        assembly {\n            // The maximum value of a uint256 contains 78 digits (1 byte per digit),\n            // but we allocate 0x80 bytes to keep the free memory pointer 32-byte word aliged.\n            // We will need 1 32-byte word to store the length,\n            // and 3 32-byte words to store a maximum of 78 digits. Total: 0x20 + 3 * 0x20 = 0x80.\n            str := add(mload(0x40), 0x80)\n            // Update the free memory pointer to allocate.\n            mstore(0x40, str)\n\n            // Cache the end of the memory to calculate the length later.\n            let end := str\n\n            // We write the string from rightmost digit to leftmost digit.\n            // The following is essentially a do-while loop that also handles the zero case.\n            // prettier-ignore\n            for { let temp := value } 1 {} {\n                str := sub(str, 1)\n                // Write the character to the pointer.\n                // The ASCII index of the '0' character is 48.\n                mstore8(str, add(48, mod(temp, 10)))\n                // Keep dividing `temp` until zero.\n                temp := div(temp, 10)\n                // prettier-ignore\n                if iszero(temp) { break }\n            }\n\n            let length := sub(end, str)\n            // Move the pointer 32 bytes leftwards to make room for the length.\n            str := sub(str, 0x20)\n            // Store the length.\n            mstore(str, length)\n        }\n    }\n}\n\n\n/**\n * @dev These functions deal with verification of Merkle Tree proofs.\n *\n * The proofs can be generated using the JavaScript library\n * https://github.com/miguelmota/merkletreejs[merkletreejs].\n * Note: the hashing algorithm should be keccak256 and pair sorting should be enabled.\n *\n * See `test/utils/cryptography/MerkleProof.test.js` for some examples.\n *\n * WARNING: You should avoid using leaf values that are 64 bytes long prior to\n * hashing, or use a hash function other than keccak256 for hashing leaves.\n * This is because the concatenation of a sorted pair of internal nodes in\n * the merkle tree could be reinterpreted as a leaf value.\n */\nlibrary MerkleProof {\n    /**\n     * @dev Returns true if a `leaf` can be proved to be a part of a Merkle tree\n     * defined by `root`. For this, a `proof` must be provided, containing\n     * sibling hashes on the branch from the leaf to the root of the tree. Each\n     * pair of leaves and each pair of pre-images are assumed to be sorted.\n     */\n    function verify(\n        bytes32[] memory proof,\n        bytes32 root,\n        bytes32 leaf\n    ) internal pure returns (bool) {\n        return processProof(proof, leaf) == root;\n    }\n\n    /**\n     * @dev Calldata version of {verify}\n     *\n     * _Available since v4.7._\n     */\n    function verifyCalldata(\n        bytes32[] calldata proof,\n        bytes32 root,\n        bytes32 leaf\n    ) internal pure returns (bool) {\n        return processProofCalldata(proof, leaf) == root;\n    }\n\n    /**\n     * @dev Returns the rebuilt hash obtained by traversing a Merkle tree up\n     * from `leaf` using `proof`. A `proof` is valid if and only if the rebuilt\n     * hash matches the root of the tree. When processing the proof, the pairs\n     * of leafs & pre-images are assumed to be sorted.\n     *\n     * _Available since v4.4._\n     */\n    function processProof(bytes32[] memory proof, bytes32 leaf) internal pure returns (bytes32) {\n        bytes32 computedHash = leaf;\n        for (uint256 i = 0; i < proof.length; i++) {\n            computedHash = _hashPair(computedHash, proof[i]);\n        }\n        return computedHash;\n    }\n\n    /**\n     * @dev Calldata version of {processProof}\n     *\n     * _Available since v4.7._\n     */\n    function processProofCalldata(bytes32[] calldata proof, bytes32 leaf) internal pure returns (bytes32) {\n        bytes32 computedHash = leaf;\n        for (uint256 i = 0; i < proof.length; i++) {\n            computedHash = _hashPair(computedHash, proof[i]);\n        }\n        return computedHash;\n    }\n\n    /**\n     * @dev Returns true if the `leaves` can be proved to be a part of a Merkle tree defined by\n     * `root`, according to `proof` and `proofFlags` as described in {processMultiProof}.\n     *\n     * _Available since v4.7._\n     */\n    function multiProofVerify(\n        bytes32[] memory proof,\n        bool[] memory proofFlags,\n        bytes32 root,\n        bytes32[] memory leaves\n    ) internal pure returns (bool) {\n        return processMultiProof(proof, proofFlags, leaves) == root;\n    }\n\n    /**\n     * @dev Calldata version of {multiProofVerify}\n     *\n     * _Available since v4.7._\n     */\n    function multiProofVerifyCalldata(\n        bytes32[] calldata proof,\n        bool[] calldata proofFlags,\n        bytes32 root,\n        bytes32[] memory leaves\n    ) internal pure returns (bool) {\n        return processMultiProofCalldata(proof, proofFlags, leaves) == root;\n    }\n\n    /**\n     * @dev Returns the root of a tree reconstructed from `leaves` and the sibling nodes in `proof`,\n     * consuming from one or the other at each step according to the instructions given by\n     * `proofFlags`.\n     *\n     * _Available since v4.7._\n     */\n    function processMultiProof(\n        bytes32[] memory proof,\n        bool[] memory proofFlags,\n        bytes32[] memory leaves\n    ) internal pure returns (bytes32 merkleRoot) {\n        // This function rebuild the root hash by traversing the tree up from the leaves. The root is rebuilt by\n        // consuming and producing values on a queue. The queue starts with the `leaves` array, then goes onto the\n        // `hashes` array. At the end of the process, the last hash in the `hashes` array should contain the root of\n        // the merkle tree.\n        uint256 leavesLen = leaves.length;\n        uint256 totalHashes = proofFlags.length;\n\n        // Check proof validity.\n        require(leavesLen + proof.length - 1 == totalHashes, \"MerkleProof: invalid multiproof\");\n\n        // The xxxPos values are \"pointers\" to the next value to consume in each array. All accesses are done using\n        // `xxx[xxxPos++]`, which return the current value and increment the pointer, thus mimicking a queue's \"pop\".\n        bytes32[] memory hashes = new bytes32[](totalHashes);\n        uint256 leafPos = 0;\n        uint256 hashPos = 0;\n        uint256 proofPos = 0;\n        // At each step, we compute the next hash using two values:\n        // - a value from the \"main queue\". If not all leaves have been consumed, we get the next leaf, otherwise we\n        //   get the next hash.\n        // - depending on the flag, either another value for the \"main queue\" (merging branches) or an element from the\n        //   `proof` array.\n        for (uint256 i = 0; i < totalHashes; i++) {\n            bytes32 a = leafPos < leavesLen ? leaves[leafPos++] : hashes[hashPos++];\n            bytes32 b = proofFlags[i] ? leafPos < leavesLen ? leaves[leafPos++] : hashes[hashPos++] : proof[proofPos++];\n            hashes[i] = _hashPair(a, b);\n        }\n\n        if (totalHashes > 0) {\n            return hashes[totalHashes - 1];\n        } else if (leavesLen > 0) {\n            return leaves[0];\n        } else {\n            return proof[0];\n        }\n    }\n\n    /**\n     * @dev Calldata version of {processMultiProof}\n     *\n     * _Available since v4.7._\n     */\n    function processMultiProofCalldata(\n        bytes32[] calldata proof,\n        bool[] calldata proofFlags,\n        bytes32[] memory leaves\n    ) internal pure returns (bytes32 merkleRoot) {\n        // This function rebuild the root hash by traversing the tree up from the leaves. The root is rebuilt by\n        // consuming and producing values on a queue. The queue starts with the `leaves` array, then goes onto the\n        // `hashes` array. At the end of the process, the last hash in the `hashes` array should contain the root of\n        // the merkle tree.\n        uint256 leavesLen = leaves.length;\n        uint256 totalHashes = proofFlags.length;\n\n        // Check proof validity.\n        require(leavesLen + proof.length - 1 == totalHashes, \"MerkleProof: invalid multiproof\");\n\n        // The xxxPos values are \"pointers\" to the next value to consume in each array. All accesses are done using\n        // `xxx[xxxPos++]`, which return the current value and increment the pointer, thus mimicking a queue's \"pop\".\n        bytes32[] memory hashes = new bytes32[](totalHashes);\n        uint256 leafPos = 0;\n        uint256 hashPos = 0;\n        uint256 proofPos = 0;\n        // At each step, we compute the next hash using two values:\n        // - a value from the \"main queue\". If not all leaves have been consumed, we get the next leaf, otherwise we\n        //   get the next hash.\n        // - depending on the flag, either another value for the \"main queue\" (merging branches) or an element from the\n        //   `proof` array.\n        for (uint256 i = 0; i < totalHashes; i++) {\n            bytes32 a = leafPos < leavesLen ? leaves[leafPos++] : hashes[hashPos++];\n            bytes32 b = proofFlags[i] ? leafPos < leavesLen ? leaves[leafPos++] : hashes[hashPos++] : proof[proofPos++];\n            hashes[i] = _hashPair(a, b);\n        }\n\n        if (totalHashes > 0) {\n            return hashes[totalHashes - 1];\n        } else if (leavesLen > 0) {\n            return leaves[0];\n        } else {\n            return proof[0];\n        }\n    }\n\n    function _hashPair(bytes32 a, bytes32 b) private pure returns (bytes32) {\n        return a < b ? _efficientHash(a, b) : _efficientHash(b, a);\n    }\n\n    function _efficientHash(bytes32 a, bytes32 b) private pure returns (bytes32 value) {\n        /// @solidity memory-safe-assembly\n        assembly {\n            mstore(0x00, a)\n            mstore(0x20, b)\n            value := keccak256(0x00, 0x40)\n        }\n    }\n}\n\n\n/**\n * @dev Provides information about the current execution context, including the\n * sender of the transaction and its data. While these are generally available\n * via msg.sender and msg.data, they should not be accessed in such a direct\n * manner, since when dealing with meta-transactions the account sending and\n * paying for execution may not be the actual sender (as far as an application\n * is concerned).\n *\n * This contract is only required for intermediate, library-like contracts.\n */\nabstract contract Context {\n    function _msgSender() internal view virtual returns (address) {\n        return msg.sender;\n    }\n\n    function _msgData() internal view virtual returns (bytes calldata) {\n        return msg.data;\n    }\n}\n\n// File: @openzeppelin/contracts/access/Ownable.sol\n\n\n/**\n * @dev Contract module which provides a basic access control mechanism, where\n * there is an account (an owner) that can be granted exclusive access to\n * specific functions.\n *\n * By default, the owner account will be the one that deploys the contract. This\n * can later be changed with {transferOwnership}.\n *\n * This module is used through inheritance. It will make available the modifier\n * `onlyOwner`, which can be applied to your functions to restrict their use to\n * the owner.\n */\nabstract contract Ownable is Context {\n    address private _owner;\n\n    event OwnershipTransferred(address indexed previousOwner, address indexed newOwner);\n\n    /**\n     * @dev Initializes the contract setting the deployer as the initial owner.\n     */\n    constructor() {\n        _transferOwnership(_msgSender());\n    }\n\n    /**\n     * @dev Throws if called by any account other than the owner.\n     */\n    modifier onlyOwner() {\n        _checkOwner();\n        _;\n    }\n\n    /**\n     * @dev Returns the address of the current owner.\n     */\n    function owner() public view virtual returns (address) {\n        return _owner;\n    }\n\n    /**\n     * @dev Throws if the sender is not the owner.\n     */\n    function _checkOwner() internal view virtual {\n        require(owner() == _msgSender(), \"Ownable: caller is not the owner\");\n    }\n\n    /**\n     * @dev Leaves the contract without owner. It will not be possible to call\n     * `onlyOwner` functions anymore. Can only be called by the current owner.\n     *\n     * NOTE: Renouncing ownership will leave the contract without an owner,\n     * thereby removing any functionality that is only available to the owner.\n     */\n    function renounceOwnership() public virtual onlyOwner {\n        _transferOwnership(address(0));\n    }\n\n    /**\n     * @dev Transfers ownership of the contract to a new account (`newOwner`).\n     * Can only be called by the current owner.\n     */\n    function transferOwnership(address newOwner) public virtual onlyOwner {\n        require(newOwner != address(0), \"Ownable: new owner is the zero address\");\n        _transferOwnership(newOwner);\n    }\n\n    /**\n     * @dev Transfers ownership of the contract to a new account (`newOwner`).\n     * Internal function without access restriction.\n     */\n    function _transferOwnership(address newOwner) internal virtual {\n        address oldOwner = _owner;\n        _owner = newOwner;\n        emit OwnershipTransferred(oldOwner, newOwner);\n    }\n}\n\n\n\n\n\ncontract DADs is ERC721A, Ownable {\n    uint256 public constant MAX_SUPPLY = 8000;\n\n    bytes32 public merkleRoot;\n    mapping(address => uint256) public mints;\n\n    bool public isMintEnabled;\n\n    constructor() ERC721A(\"D.A.Ds\", \"D.A.Ds\") {}\n\n\n    function checkValidity(bytes32[] calldata _merkleProof,address user) public view returns (bool){\n        bytes32 leaf = keccak256(abi.encodePacked(user));\n        require(MerkleProof.verify(_merkleProof, merkleRoot, leaf), \"Incorrect proof\");\n        return true; \n    }\n\n\n    function flipMintEnabled() public onlyOwner{\n        isMintEnabled = !isMintEnabled;\n    }\n\n\n    function setMerkleRoot(bytes32 _root)  public onlyOwner{\n        merkleRoot = _root;\n    }\n\n    function mint(bytes32[] calldata _merkleProof,uint256 quantity) external {\n        require(isMintEnabled,\"Mint not enabled\");\n        require(totalSupply()+quantity<= MAX_SUPPLY,\"Max supply exceeds\");\n        checkValidity(_merkleProof,msg.sender);\n        mints[msg.sender] +=quantity;\n        _mint(msg.sender, quantity);\n\n    }\n}\n",
  "sourcePath": "/Users/shahzeb/Desktop/projects/clients/dexter/metalclash/contracts/contracts/NFT.sol",
  "compiler": {
    "name": "solc",
    "version": "0.8.13+commit.abaa5c0e.Emscripten.clang"
  },
  "schemaVersion": "3.4.6",
  "updatedAt": "2022-08-17T11:25:08.922Z",
  "devdoc": {
    "kind": "dev",
    "methods": {
      "approve(address,uint256)": {
        "details": "Gives permission to `to` to transfer `tokenId` token to another account. The approval is cleared when the token is transferred. Only a single account can be approved at a time, so approving the zero address clears previous approvals. Requirements: - The caller must own the token or be an approved operator. - `tokenId` must exist. Emits an {Approval} event."
      },
      "balanceOf(address)": {
        "details": "Returns the number of tokens in `owner`'s account."
      },
      "getApproved(uint256)": {
        "details": "Returns the account approved for `tokenId` token. Requirements: - `tokenId` must exist."
      },
      "isApprovedForAll(address,address)": {
        "details": "Returns if the `operator` is allowed to manage all of the assets of `owner`. See {setApprovalForAll}."
      },
      "name()": {
        "details": "Returns the token collection name."
      },
      "owner()": {
        "details": "Returns the address of the current owner."
      },
      "ownerOf(uint256)": {
        "details": "Returns the owner of the `tokenId` token. Requirements: - `tokenId` must exist."
      },
      "renounceOwnership()": {
        "details": "Leaves the contract without owner. It will not be possible to call `onlyOwner` functions anymore. Can only be called by the current owner. NOTE: Renouncing ownership will leave the contract without an owner, thereby removing any functionality that is only available to the owner."
      },
      "safeTransferFrom(address,address,uint256)": {
        "details": "Equivalent to `safeTransferFrom(from, to, tokenId, '')`."
      },
      "safeTransferFrom(address,address,uint256,bytes)": {
        "details": "Safely transfers `tokenId` token from `from` to `to`. Requirements: - `from` cannot be the zero address. - `to` cannot be the zero address. - `tokenId` token must exist and be owned by `from`. - If the caller is not `from`, it must be approved to move this token by either {approve} or {setApprovalForAll}. - If `to` refers to a smart contract, it must implement {IERC721Receiver-onERC721Received}, which is called upon a safe transfer. Emits a {Transfer} event."
      },
      "setApprovalForAll(address,bool)": {
        "details": "Approve or remove `operator` as an operator for the caller. Operators can call {transferFrom} or {safeTransferFrom} for any token owned by the caller. Requirements: - The `operator` cannot be the caller. Emits an {ApprovalForAll} event."
      },
      "supportsInterface(bytes4)": {
        "details": "Returns true if this contract implements the interface defined by `interfaceId`. See the corresponding [EIP section](https://eips.ethereum.org/EIPS/eip-165#how-interfaces-are-identified) to learn more about how these ids are created. This function call must use less than 30000 gas."
      },
      "symbol()": {
        "details": "Returns the token collection symbol."
      },
      "tokenURI(uint256)": {
        "details": "Returns the Uniform Resource Identifier (URI) for `tokenId` token."
      },
      "totalSupply()": {
        "details": "Returns the total number of tokens in existence. Burned tokens will reduce the count. To get the total number of tokens minted, please see {_totalMinted}."
      },
      "transferFrom(address,address,uint256)": {
        "details": "Transfers `tokenId` from `from` to `to`. Requirements: - `from` cannot be the zero address. - `to` cannot be the zero address. - `tokenId` token must be owned by `from`. - If the caller is not `from`, it must be approved to move this token by either {approve} or {setApprovalForAll}. Emits a {Transfer} event."
      },
      "transferOwnership(address)": {
        "details": "Transfers ownership of the contract to a new account (`newOwner`). Can only be called by the current owner."
      }
    },
    "version": 1
  },
  "userdoc": {
    "errors": {
      "ApprovalCallerNotOwnerNorApproved()": [
        {
          "notice": "The caller must own the token or be an approved operator."
        }
      ],
      "ApprovalQueryForNonexistentToken()": [
        {
          "notice": "The token does not exist."
        }
      ],
      "ApproveToCaller()": [
        {
          "notice": "The caller cannot approve to their own address."
        }
      ],
      "BalanceQueryForZeroAddress()": [
        {
          "notice": "Cannot query the balance for the zero address."
        }
      ],
      "MintERC2309QuantityExceedsLimit()": [
        {
          "notice": "The `quantity` minted with ERC2309 exceeds the safety limit."
        }
      ],
      "MintToZeroAddress()": [
        {
          "notice": "Cannot mint to the zero address."
        }
      ],
      "MintZeroQuantity()": [
        {
          "notice": "The quantity of tokens minted must be more than zero."
        }
      ],
      "OwnerQueryForNonexistentToken()": [
        {
          "notice": "The token does not exist."
        }
      ],
      "OwnershipNotInitializedForExtraData()": [
        {
          "notice": "The `extraData` cannot be set on an unintialized ownership slot."
        }
      ],
      "TransferCallerNotOwnerNorApproved()": [
        {
          "notice": "The caller must own the token or be an approved operator."
        }
      ],
      "TransferFromIncorrectOwner()": [
        {
          "notice": "The token must be owned by `from`."
        }
      ],
      "TransferToNonERC721ReceiverImplementer()": [
        {
          "notice": "Cannot safely transfer to a contract that does not implement the ERC721Receiver interface."
        }
      ],
      "TransferToZeroAddress()": [
        {
          "notice": "Cannot transfer to the zero address."
        }
      ],
      "URIQueryForNonexistentToken()": [
        {
          "notice": "The token does not exist."
        }
      ]
    },
    "kind": "user",
    "methods": {},
    "version": 1
  }
}