{
  "contractName": "MetaClashVesting",
  "abi": [
    {
      "inputs": [
        {
          "internalType": "address",
          "name": "token",
          "type": "address"
        },
        {
          "internalType": "address",
          "name": "_seedSaleWallet",
          "type": "address"
        },
        {
          "internalType": "address",
          "name": "_privateSaleWallet",
          "type": "address"
        },
        {
          "internalType": "address",
          "name": "_publicSaleWallet",
          "type": "address"
        },
        {
          "internalType": "address",
          "name": "_nftWallet",
          "type": "address"
        },
        {
          "internalType": "address",
          "name": "_listingAndLiquidityWallet",
          "type": "address"
        },
        {
          "internalType": "address",
          "name": "_teamWallet",
          "type": "address"
        },
        {
          "internalType": "address",
          "name": "_advisorWallet",
          "type": "address"
        }
      ],
      "stateMutability": "nonpayable",
      "type": "constructor"
    },
    {
      "anonymous": false,
      "inputs": [
        {
          "indexed": false,
          "internalType": "uint256",
          "name": "amount",
          "type": "uint256"
        }
      ],
      "name": "OnAdvisorAndLiquidityClaim",
      "type": "event"
    },
    {
      "anonymous": false,
      "inputs": [
        {
          "indexed": false,
          "internalType": "uint256",
          "name": "amount",
          "type": "uint256"
        }
      ],
      "name": "OnListingAndLiquidityClaim",
      "type": "event"
    },
    {
      "anonymous": false,
      "inputs": [
        {
          "indexed": false,
          "internalType": "uint256",
          "name": "amount",
          "type": "uint256"
        }
      ],
      "name": "OnNFTSaleClaim",
      "type": "event"
    },
    {
      "anonymous": false,
      "inputs": [
        {
          "indexed": false,
          "internalType": "uint256",
          "name": "amount",
          "type": "uint256"
        }
      ],
      "name": "OnPrivateSaleClaim",
      "type": "event"
    },
    {
      "anonymous": false,
      "inputs": [
        {
          "indexed": false,
          "internalType": "uint256",
          "name": "amount",
          "type": "uint256"
        }
      ],
      "name": "OnPublicSaleClaim",
      "type": "event"
    },
    {
      "anonymous": false,
      "inputs": [
        {
          "indexed": false,
          "internalType": "uint256",
          "name": "amount",
          "type": "uint256"
        }
      ],
      "name": "OnSeedSaleClaim",
      "type": "event"
    },
    {
      "anonymous": false,
      "inputs": [
        {
          "indexed": false,
          "internalType": "uint256",
          "name": "amount",
          "type": "uint256"
        }
      ],
      "name": "OnTeamClaim",
      "type": "event"
    },
    {
      "anonymous": false,
      "inputs": [
        {
          "indexed": true,
          "internalType": "address",
          "name": "previousOwner",
          "type": "address"
        },
        {
          "indexed": true,
          "internalType": "address",
          "name": "newOwner",
          "type": "address"
        }
      ],
      "name": "OwnershipTransferred",
      "type": "event"
    },
    {
      "inputs": [],
      "name": "ADVISOR_SHARE",
      "outputs": [
        {
          "internalType": "uint256",
          "name": "",
          "type": "uint256"
        }
      ],
      "stateMutability": "view",
      "type": "function"
    },
    {
      "inputs": [],
      "name": "LISTING_LIQUIDITY_SHARE",
      "outputs": [
        {
          "internalType": "uint256",
          "name": "",
          "type": "uint256"
        }
      ],
      "stateMutability": "view",
      "type": "function"
    },
    {
      "inputs": [],
      "name": "NFT_SALE_SHARE",
      "outputs": [
        {
          "internalType": "uint256",
          "name": "",
          "type": "uint256"
        }
      ],
      "stateMutability": "view",
      "type": "function"
    },
    {
      "inputs": [],
      "name": "ONE_DAY",
      "outputs": [
        {
          "internalType": "uint256",
          "name": "",
          "type": "uint256"
        }
      ],
      "stateMutability": "view",
      "type": "function"
    },
    {
      "inputs": [],
      "name": "PRIVATE_SALE_SHARE",
      "outputs": [
        {
          "internalType": "uint256",
          "name": "",
          "type": "uint256"
        }
      ],
      "stateMutability": "view",
      "type": "function"
    },
    {
      "inputs": [],
      "name": "PUBLIC_SALE_SHARE",
      "outputs": [
        {
          "internalType": "uint256",
          "name": "",
          "type": "uint256"
        }
      ],
      "stateMutability": "view",
      "type": "function"
    },
    {
      "inputs": [],
      "name": "SEED_WALLET_SHARE",
      "outputs": [
        {
          "internalType": "uint256",
          "name": "",
          "type": "uint256"
        }
      ],
      "stateMutability": "view",
      "type": "function"
    },
    {
      "inputs": [],
      "name": "TEAM_SHARE",
      "outputs": [
        {
          "internalType": "uint256",
          "name": "",
          "type": "uint256"
        }
      ],
      "stateMutability": "view",
      "type": "function"
    },
    {
      "inputs": [],
      "name": "_tokenInstance",
      "outputs": [
        {
          "internalType": "contract IERC20",
          "name": "",
          "type": "address"
        }
      ],
      "stateMutability": "view",
      "type": "function"
    },
    {
      "inputs": [],
      "name": "advisorClaimed",
      "outputs": [
        {
          "internalType": "uint256",
          "name": "",
          "type": "uint256"
        }
      ],
      "stateMutability": "view",
      "type": "function"
    },
    {
      "inputs": [],
      "name": "advisorReleaseTime",
      "outputs": [
        {
          "internalType": "uint256",
          "name": "",
          "type": "uint256"
        }
      ],
      "stateMutability": "view",
      "type": "function"
    },
    {
      "inputs": [],
      "name": "advisorWallet",
      "outputs": [
        {
          "internalType": "address",
          "name": "",
          "type": "address"
        }
      ],
      "stateMutability": "view",
      "type": "function"
    },
    {
      "inputs": [],
      "name": "liquidityReleaseTime",
      "outputs": [
        {
          "internalType": "uint256",
          "name": "",
          "type": "uint256"
        }
      ],
      "stateMutability": "view",
      "type": "function"
    },
    {
      "inputs": [],
      "name": "listingAndLiquidityClaimed",
      "outputs": [
        {
          "internalType": "uint256",
          "name": "",
          "type": "uint256"
        }
      ],
      "stateMutability": "view",
      "type": "function"
    },
    {
      "inputs": [],
      "name": "listingAndLiquidityWallet",
      "outputs": [
        {
          "internalType": "address",
          "name": "",
          "type": "address"
        }
      ],
      "stateMutability": "view",
      "type": "function"
    },
    {
      "inputs": [],
      "name": "nftClaimed",
      "outputs": [
        {
          "internalType": "uint256",
          "name": "",
          "type": "uint256"
        }
      ],
      "stateMutability": "view",
      "type": "function"
    },
    {
      "inputs": [],
      "name": "nftReleaseTime",
      "outputs": [
        {
          "internalType": "uint256",
          "name": "",
          "type": "uint256"
        }
      ],
      "stateMutability": "view",
      "type": "function"
    },
    {
      "inputs": [],
      "name": "nftWallet",
      "outputs": [
        {
          "internalType": "address",
          "name": "",
          "type": "address"
        }
      ],
      "stateMutability": "view",
      "type": "function"
    },
    {
      "inputs": [],
      "name": "owner",
      "outputs": [
        {
          "internalType": "address",
          "name": "",
          "type": "address"
        }
      ],
      "stateMutability": "view",
      "type": "function"
    },
    {
      "inputs": [],
      "name": "privateSaleClaimed",
      "outputs": [
        {
          "internalType": "uint256",
          "name": "",
          "type": "uint256"
        }
      ],
      "stateMutability": "view",
      "type": "function"
    },
    {
      "inputs": [],
      "name": "privateSaleReleaseTime",
      "outputs": [
        {
          "internalType": "uint256",
          "name": "",
          "type": "uint256"
        }
      ],
      "stateMutability": "view",
      "type": "function"
    },
    {
      "inputs": [],
      "name": "privateSaleWallet",
      "outputs": [
        {
          "internalType": "address",
          "name": "",
          "type": "address"
        }
      ],
      "stateMutability": "view",
      "type": "function"
    },
    {
      "inputs": [],
      "name": "publicSaleClaimed",
      "outputs": [
        {
          "internalType": "uint256",
          "name": "",
          "type": "uint256"
        }
      ],
      "stateMutability": "view",
      "type": "function"
    },
    {
      "inputs": [],
      "name": "publicSaleReleaseTime",
      "outputs": [
        {
          "internalType": "uint256",
          "name": "",
          "type": "uint256"
        }
      ],
      "stateMutability": "view",
      "type": "function"
    },
    {
      "inputs": [],
      "name": "publicSaleWallet",
      "outputs": [
        {
          "internalType": "address",
          "name": "",
          "type": "address"
        }
      ],
      "stateMutability": "view",
      "type": "function"
    },
    {
      "inputs": [],
      "name": "publicShareNoOfClaims",
      "outputs": [
        {
          "internalType": "uint256",
          "name": "",
          "type": "uint256"
        }
      ],
      "stateMutability": "view",
      "type": "function"
    },
    {
      "inputs": [],
      "name": "renounceOwnership",
      "outputs": [],
      "stateMutability": "nonpayable",
      "type": "function"
    },
    {
      "inputs": [],
      "name": "seedSaleClaimed",
      "outputs": [
        {
          "internalType": "uint256",
          "name": "",
          "type": "uint256"
        }
      ],
      "stateMutability": "view",
      "type": "function"
    },
    {
      "inputs": [],
      "name": "seedSaleReleaseTime",
      "outputs": [
        {
          "internalType": "uint256",
          "name": "",
          "type": "uint256"
        }
      ],
      "stateMutability": "view",
      "type": "function"
    },
    {
      "inputs": [],
      "name": "seedSaleWallet",
      "outputs": [
        {
          "internalType": "address",
          "name": "",
          "type": "address"
        }
      ],
      "stateMutability": "view",
      "type": "function"
    },
    {
      "inputs": [],
      "name": "teamClaimed",
      "outputs": [
        {
          "internalType": "uint256",
          "name": "",
          "type": "uint256"
        }
      ],
      "stateMutability": "view",
      "type": "function"
    },
    {
      "inputs": [],
      "name": "teamReleaseTime",
      "outputs": [
        {
          "internalType": "uint256",
          "name": "",
          "type": "uint256"
        }
      ],
      "stateMutability": "view",
      "type": "function"
    },
    {
      "inputs": [],
      "name": "teamWallet",
      "outputs": [
        {
          "internalType": "address",
          "name": "",
          "type": "address"
        }
      ],
      "stateMutability": "view",
      "type": "function"
    },
    {
      "inputs": [],
      "name": "totalLocked",
      "outputs": [
        {
          "internalType": "uint256",
          "name": "",
          "type": "uint256"
        }
      ],
      "stateMutability": "view",
      "type": "function"
    },
    {
      "inputs": [
        {
          "internalType": "address",
          "name": "newOwner",
          "type": "address"
        }
      ],
      "name": "transferOwnership",
      "outputs": [],
      "stateMutability": "nonpayable",
      "type": "function"
    },
    {
      "inputs": [],
      "name": "getContractBalance",
      "outputs": [
        {
          "internalType": "uint256",
          "name": "",
          "type": "uint256"
        }
      ],
      "stateMutability": "view",
      "type": "function"
    },
    {
      "inputs": [],
      "name": "claimSeedSaleShare",
      "outputs": [],
      "stateMutability": "nonpayable",
      "type": "function"
    },
    {
      "inputs": [],
      "name": "claimPrivateSaleShare",
      "outputs": [],
      "stateMutability": "nonpayable",
      "type": "function"
    },
    {
      "inputs": [],
      "name": "claimPublicSaleShare",
      "outputs": [],
      "stateMutability": "nonpayable",
      "type": "function"
    },
    {
      "inputs": [],
      "name": "claimNFTShare",
      "outputs": [],
      "stateMutability": "nonpayable",
      "type": "function"
    },
    {
      "inputs": [],
      "name": "claimListingAndLiquidityShare",
      "outputs": [],
      "stateMutability": "nonpayable",
      "type": "function"
    },
    {
      "inputs": [],
      "name": "claimTeamShare",
      "outputs": [],
      "stateMutability": "nonpayable",
      "type": "function"
    },
    {
      "inputs": [],
      "name": "claimAdvisorShare",
      "outputs": [],
      "stateMutability": "nonpayable",
      "type": "function"
    }
  ],
  "bytecode": "0x6101a0604052620000cb6b1027e72f1f12813088000000620000b76b3077b58d5d37839198000000620000a36b0a044288bc398d899c0000006200008f6b06765c793fa10079d00000006200007b6b2a0159141d968317c80000006b09b18ab5df7180b6b80000006200075360201b62001f741790919060201c565b6200075360201b62001f741790919060201c565b6200075360201b62001f741790919060201c565b6200075360201b62001f741790919060201c565b6200075360201b62001f741790919060201c565b61016090815250620000f062015180601e620007b660201b62001fd21790919060201c565b610180908152503480156200010457600080fd5b50604051620036c2380380620036c283398181016040528101906200012a9190620008ab565b60006200013c6200083960201b60201c565b9050806000806101000a81548173ffffffffffffffffffffffffffffffffffffffff021916908373ffffffffffffffffffffffffffffffffffffffff1602179055508073ffffffffffffffffffffffffffffffffffffffff16600073ffffffffffffffffffffffffffffffffffffffff167f8be0079c531659141344cd1fd0a4f28419497f9722a3daafe3b4186f6b6457e060405160405180910390a350600073ffffffffffffffffffffffffffffffffffffffff168773ffffffffffffffffffffffffffffffffffffffff16036200024c576040517f08c379a00000000000000000000000000000000000000000000000000000000081526004016200024390620009d5565b60405180910390fd5b600073ffffffffffffffffffffffffffffffffffffffff168673ffffffffffffffffffffffffffffffffffffffff1603620002be576040517f08c379a0000000000000000000000000000000000000000000000000000000008152600401620002b590620009d5565b60405180910390fd5b600073ffffffffffffffffffffffffffffffffffffffff168573ffffffffffffffffffffffffffffffffffffffff160362000330576040517f08c379a00000000000000000000000000000000000000000000000000000000081526004016200032790620009d5565b60405180910390fd5b600073ffffffffffffffffffffffffffffffffffffffff168473ffffffffffffffffffffffffffffffffffffffff1603620003a2576040517f08c379a00000000000000000000000000000000000000000000000000000000081526004016200039990620009d5565b60405180910390fd5b600073ffffffffffffffffffffffffffffffffffffffff168373ffffffffffffffffffffffffffffffffffffffff160362000414576040517f08c379a00000000000000000000000000000000000000000000000000000000081526004016200040b90620009d5565b60405180910390fd5b600073ffffffffffffffffffffffffffffffffffffffff168273ffffffffffffffffffffffffffffffffffffffff160362000486576040517f08c379a00000000000000000000000000000000000000000000000000000000081526004016200047d90620009d5565b60405180910390fd5b600073ffffffffffffffffffffffffffffffffffffffff168173ffffffffffffffffffffffffffffffffffffffff1603620004f8576040517f08c379a0000000000000000000000000000000000000000000000000000000008152600401620004ef90620009d5565b60405180910390fd5b8673ffffffffffffffffffffffffffffffffffffffff1660808173ffffffffffffffffffffffffffffffffffffffff16815250508573ffffffffffffffffffffffffffffffffffffffff1660a08173ffffffffffffffffffffffffffffffffffffffff16815250508473ffffffffffffffffffffffffffffffffffffffff1660c08173ffffffffffffffffffffffffffffffffffffffff16815250508373ffffffffffffffffffffffffffffffffffffffff1660e08173ffffffffffffffffffffffffffffffffffffffff16815250508273ffffffffffffffffffffffffffffffffffffffff166101008173ffffffffffffffffffffffffffffffffffffffff16815250508173ffffffffffffffffffffffffffffffffffffffff166101208173ffffffffffffffffffffffffffffffffffffffff16815250508073ffffffffffffffffffffffffffffffffffffffff166101408173ffffffffffffffffffffffffffffffffffffffff168152505042600a8190555042600b8190555042600c8190555042600d8190555042600e81905550620006c1620006ac600c61018051620007b660201b62001fd21790919060201c565b426200075360201b62001f741790919060201c565b600f81905550620006fe620006e9600c61018051620007b660201b62001fd21790919060201c565b426200075360201b62001f741790919060201c565b60108190555087600160006101000a81548173ffffffffffffffffffffffffffffffffffffffff021916908373ffffffffffffffffffffffffffffffffffffffff160217905550505050505050505062000c5f565b600080828462000764919062000a30565b905083811015620007ac576040517f08c379a0000000000000000000000000000000000000000000000000000000008152600401620007a39062000add565b60405180910390fd5b8091505092915050565b6000808303620007ca576000905062000833565b60008284620007da919062000aff565b9050828482620007eb919062000b8f565b146200082e576040517f08c379a0000000000000000000000000000000000000000000000000000000008152600401620008259062000c3d565b60405180910390fd5b809150505b92915050565b600033905090565b600080fd5b600073ffffffffffffffffffffffffffffffffffffffff82169050919050565b6000620008738262000846565b9050919050565b620008858162000866565b81146200089157600080fd5b50565b600081519050620008a5816200087a565b92915050565b600080600080600080600080610100898b031215620008cf57620008ce62000841565b5b6000620008df8b828c0162000894565b9850506020620008f28b828c0162000894565b9750506040620009058b828c0162000894565b9650506060620009188b828c0162000894565b95505060806200092b8b828c0162000894565b94505060a06200093e8b828c0162000894565b93505060c0620009518b828c0162000894565b92505060e0620009648b828c0162000894565b9150509295985092959890939650565b600082825260208201905092915050565b7f496e76616c696420416464726573730000000000000000000000000000000000600082015250565b6000620009bd600f8362000974565b9150620009ca8262000985565b602082019050919050565b60006020820190508181036000830152620009f081620009ae565b9050919050565b6000819050919050565b7f4e487b7100000000000000000000000000000000000000000000000000000000600052601160045260246000fd5b600062000a3d82620009f7565b915062000a4a83620009f7565b9250827fffffffffffffffffffffffffffffffffffffffffffffffffffffffffffffffff0382111562000a825762000a8162000a01565b5b828201905092915050565b7f536166654d6174683a206164646974696f6e206f766572666c6f770000000000600082015250565b600062000ac5601b8362000974565b915062000ad28262000a8d565b602082019050919050565b6000602082019050818103600083015262000af88162000ab6565b9050919050565b600062000b0c82620009f7565b915062000b1983620009f7565b9250817fffffffffffffffffffffffffffffffffffffffffffffffffffffffffffffffff048311821515161562000b555762000b5462000a01565b5b828202905092915050565b7f4e487b7100000000000000000000000000000000000000000000000000000000600052601260045260246000fd5b600062000b9c82620009f7565b915062000ba983620009f7565b92508262000bbc5762000bbb62000b60565b5b828204905092915050565b7f536166654d6174683a206d756c7469706c69636174696f6e206f766572666c6f60008201527f7700000000000000000000000000000000000000000000000000000000000000602082015250565b600062000c2560218362000974565b915062000c328262000bc7565b604082019050919050565b6000602082019050818103600083015262000c588162000c16565b9050919050565b60805160a05160c05160e051610100516101205161014051610160516101805161295f62000d636000396000818161085701528181610be0015281816110c90152818161114b01528181611426015281816116ef01528181611a8a0152611d3501526000610a390152600081816109a301528181611bed0152611dc4015260008181610a5d01528181610a980152610c6f015260008181610f74015281816111db01526115820152600081816112f4015281816114b5015261183b015260008181610d3c015281816118760152611b190152600081816115bd0152818161177e0152611eab015260008181610725015281816108e601526109c7015261295f6000f3fe608060405234801561001057600080fd5b50600436106102695760003560e01c80638653a71911610151578063c06d8435116100c3578063dbff0ac011610087578063dbff0ac014610624578063e15355c114610642578063e679f5ae14610660578063ea5034291461067e578063f22740af1461069c578063f2fde38b146106ba57610269565b8063c06d8435146105a2578063c2862487146105ac578063d8dc8187146105ca578063d9bf3e17146105e8578063db3e89dd1461060657610269565b8063a89b60b011610115578063a89b60b01461052a578063aa9b393414610534578063aba733d614610552578063af67d80b14610570578063b1e370081461057a578063bd6ee8f01461059857610269565b80638653a719146104a85780638da5cb5b146104b25780639d35222f146104d05780639e847fec146104ee578063a43a44d01461050c57610269565b806346057a2a116101ea57806359cf6611116101ae57806359cf66111461041c57806362aee544146104265780636cb13595146104445780636f9fb98a14610462578063715018a614610480578063863e76db1461048a57610269565b806346057a2a1461038657806348e620a6146103a457806349cbe332146103c257806356891412146103e057806359927044146103fe57610269565b8063319db3be11610231578063319db3be146102f057806333645f0b1461030e57806335617a7a1461032c5780633f052dfd1461034a5780633f7ac1f31461036857610269565b806305943a151461026e57806324feb0f61461028c5780632ae25ae7146102aa5780632f334652146102c8578063315f70c6146102e6575b600080fd5b6102766106d6565b60405161028391906121f7565b60405180910390f35b6102946106e6565b6040516102a191906121f7565b60405180910390f35b6102b26106f6565b6040516102bf91906121f7565b60405180910390f35b6102d0610706565b6040516102dd91906121f7565b60405180910390f35b6102ee61070c565b005b6102f86109a1565b6040516103059190612253565b60405180910390f35b6103166109c5565b6040516103239190612253565b60405180910390f35b6103346109e9565b60405161034191906121f7565b60405180910390f35b6103526109ef565b60405161035f91906121f7565b60405180910390f35b6103706109f5565b60405161037d91906121f7565b60405180910390f35b61038e6109fb565b60405161039b91906121f7565b60405180910390f35b6103ac610a01565b6040516103b991906121f7565b60405180910390f35b6103ca610a11565b6040516103d791906122cd565b60405180910390f35b6103e8610a37565b6040516103f591906121f7565b60405180910390f35b610406610a5b565b6040516104139190612253565b60405180910390f35b610424610a7f565b005b61042e610d2a565b60405161043b91906121f7565b60405180910390f35b61044c610d3a565b6040516104599190612253565b60405180910390f35b61046a610d5e565b60405161047791906121f7565b60405180910390f35b610488610e01565b005b610492610f54565b60405161049f91906121f7565b60405180910390f35b6104b0610f5b565b005b6104ba611296565b6040516104c79190612253565b60405180910390f35b6104d86112bf565b6040516104e591906121f7565b60405180910390f35b6104f66112c5565b60405161050391906121f7565b60405180910390f35b6105146112cb565b60405161052191906121f7565b60405180910390f35b6105326112db565b005b61053c611570565b60405161054991906121f7565b60405180910390f35b61055a611580565b6040516105679190612253565b60405180910390f35b6105786115a4565b005b610582611839565b60405161058f9190612253565b60405180910390f35b6105a061185d565b005b6105aa611bd4565b005b6105b4611e7f565b6040516105c191906121f7565b60405180910390f35b6105d2611e85565b6040516105df91906121f7565b60405180910390f35b6105f0611e8b565b6040516105fd91906121f7565b60405180910390f35b61060e611e91565b60405161061b91906121f7565b60405180910390f35b61062c611e97565b60405161063991906121f7565b60405180910390f35b61064a611e9d565b60405161065791906121f7565b60405180910390f35b610668611ea3565b60405161067591906121f7565b60405180910390f35b610686611ea9565b6040516106939190612253565b60405180910390f35b6106a4611ecd565b6040516106b191906121f7565b60405180910390f35b6106d460048036038101906106cf9190612319565b611ed3565b005b6b3077b58d5d3783919800000081565b6b09b18ab5df7180b6b800000081565b6b06765c793fa10079d000000081565b60075481565b3373ffffffffffffffffffffffffffffffffffffffff167f000000000000000000000000000000000000000000000000000000000000000073ffffffffffffffffffffffffffffffffffffffff161461079a576040517f08c379a0000000000000000000000000000000000000000000000000000000008152600401610791906123a3565b60405180910390fd5b42600a54106107de576040517f08c379a00000000000000000000000000000000000000000000000000000000081526004016107d59061240f565b60405180910390fd5b6b09b18ab5df7180b6b80000006002541061082e576040517f08c379a00000000000000000000000000000000000000000000000000000000081526004016108259061247b565b60405180910390fd5b600061085060146b09b18ab5df7180b6b800000061204c90919063ffffffff16565b90506108857f000000000000000000000000000000000000000000000000000000000000000042611f7490919063ffffffff16565b600a819055506108a081600254611f7490919063ffffffff16565b600281905550600160009054906101000a900473ffffffffffffffffffffffffffffffffffffffff1673ffffffffffffffffffffffffffffffffffffffff1663a9059cbb7f0000000000000000000000000000000000000000000000000000000000000000836040518363ffffffff1660e01b815260040161092392919061249b565b6020604051808303816000875af1158015610942573d6000803e3d6000fd5b505050506040513d601f19601f8201168201806040525081019061096691906124fc565b507f732500fbb673f37f4770e481df0271c3ba358c6a1558b9dc74aa505645b51f718160405161099691906121f7565b60405180910390a150565b7f000000000000000000000000000000000000000000000000000000000000000081565b7f000000000000000000000000000000000000000000000000000000000000000081565b60045481565b600c5481565b60085481565b600a5481565b6b0a044288bc398d899c00000081565b600160009054906101000a900473ffffffffffffffffffffffffffffffffffffffff1681565b7f000000000000000000000000000000000000000000000000000000000000000081565b7f000000000000000000000000000000000000000000000000000000000000000081565b3373ffffffffffffffffffffffffffffffffffffffff167f000000000000000000000000000000000000000000000000000000000000000073ffffffffffffffffffffffffffffffffffffffff1614610b0d576040517f08c379a0000000000000000000000000000000000000000000000000000000008152600401610b04906123a3565b60405180910390fd5b42600f5410610b51576040517f08c379a0000000000000000000000000000000000000000000000000000000008152600401610b489061240f565b60405180910390fd5b6b3077b58d5d3783919800000060075410610ba1576040517f08c379a0000000000000000000000000000000000000000000000000000000008152600401610b989061247b565b60405180910390fd5b6000610bd9620186a0610bcb6110476b3077b58d5d37839198000000611fd290919063ffffffff16565b61204c90919063ffffffff16565b9050610c0e7f000000000000000000000000000000000000000000000000000000000000000042611f7490919063ffffffff16565b600f81905550610c2981600754611f7490919063ffffffff16565b600781905550600160009054906101000a900473ffffffffffffffffffffffffffffffffffffffff1673ffffffffffffffffffffffffffffffffffffffff1663a9059cbb7f0000000000000000000000000000000000000000000000000000000000000000836040518363ffffffff1660e01b8152600401610cac92919061249b565b6020604051808303816000875af1158015610ccb573d6000803e3d6000fd5b505050506040513d601f19601f82011682018060405250810190610cef91906124fc565b507f53dac02cfc8079122afa953b24167349a46086b3a41b3800f07c685568a79ea281604051610d1f91906121f7565b60405180910390a150565b6b1027e72f1f1281308800000081565b7f000000000000000000000000000000000000000000000000000000000000000081565b6000600160009054906101000a900473ffffffffffffffffffffffffffffffffffffffff1673ffffffffffffffffffffffffffffffffffffffff166370a08231306040518263ffffffff1660e01b8152600401610dbb9190612253565b602060405180830381865afa158015610dd8573d6000803e3d6000fd5b505050506040513d601f19601f82011682018060405250810190610dfc9190612555565b905090565b610e096120aa565b73ffffffffffffffffffffffffffffffffffffffff1660008054906101000a900473ffffffffffffffffffffffffffffffffffffffff1673ffffffffffffffffffffffffffffffffffffffff1614610e96576040517f08c379a0000000000000000000000000000000000000000000000000000000008152600401610e8d906125ce565b60405180910390fd5b600073ffffffffffffffffffffffffffffffffffffffff1660008054906101000a900473ffffffffffffffffffffffffffffffffffffffff1673ffffffffffffffffffffffffffffffffffffffff167f8be0079c531659141344cd1fd0a4f28419497f9722a3daafe3b4186f6b6457e060405160405180910390a360008060006101000a81548173ffffffffffffffffffffffffffffffffffffffff021916908373ffffffffffffffffffffffffffffffffffffffff160217905550565b6201518081565b3373ffffffffffffffffffffffffffffffffffffffff167f000000000000000000000000000000000000000000000000000000000000000073ffffffffffffffffffffffffffffffffffffffff1614610fe9576040517f08c379a0000000000000000000000000000000000000000000000000000000008152600401610fe0906123a3565b60405180910390fd5b42600e541061102d576040517f08c379a00000000000000000000000000000000000000000000000000000000081526004016110249061240f565b60405180910390fd5b6b09b18ab5df7180b6b80000006006541061107d576040517f08c379a00000000000000000000000000000000000000000000000000000000081526004016110749061247b565b60405180910390fd5b60008060065403611110576110bd6103e86110af6101906b09b18ab5df7180b6b8000000611fd290919063ffffffff16565b61204c90919063ffffffff16565b90506111056110f660037f0000000000000000000000000000000000000000000000000000000000000000611fd290919063ffffffff16565b42611f7490919063ffffffff16565b600e81905550611180565b6111446103e861113660196b09b18ab5df7180b6b8000000611fd290919063ffffffff16565b61204c90919063ffffffff16565b90506111797f000000000000000000000000000000000000000000000000000000000000000042611f7490919063ffffffff16565b600e819055505b61119581600654611f7490919063ffffffff16565b600681905550600160009054906101000a900473ffffffffffffffffffffffffffffffffffffffff1673ffffffffffffffffffffffffffffffffffffffff1663a9059cbb7f0000000000000000000000000000000000000000000000000000000000000000836040518363ffffffff1660e01b815260040161121892919061249b565b6020604051808303816000875af1158015611237573d6000803e3d6000fd5b505050506040513d601f19601f8201168201806040525081019061125b91906124fc565b507fab8d273947071a11036eaf85d5cce2ce9550ddec9933fa5721c87ebeb5c8129b8160405161128b91906121f7565b60405180910390a150565b60008060009054906101000a900473ffffffffffffffffffffffffffffffffffffffff16905090565b60095481565b600f5481565b6b09b18ab5df7180b6b800000081565b3373ffffffffffffffffffffffffffffffffffffffff167f000000000000000000000000000000000000000000000000000000000000000073ffffffffffffffffffffffffffffffffffffffff1614611369576040517f08c379a0000000000000000000000000000000000000000000000000000000008152600401611360906123a3565b60405180910390fd5b42600d54106113ad576040517f08c379a00000000000000000000000000000000000000000000000000000000081526004016113a49061240f565b60405180910390fd5b6b0a044288bc398d899c000000600554106113fd576040517f08c379a00000000000000000000000000000000000000000000000000000000081526004016113f49061247b565b60405180910390fd5b600061141f600a6b0a044288bc398d899c00000061204c90919063ffffffff16565b90506114547f000000000000000000000000000000000000000000000000000000000000000042611f7490919063ffffffff16565b600d8190555061146f81600554611f7490919063ffffffff16565b600581905550600160009054906101000a900473ffffffffffffffffffffffffffffffffffffffff1673ffffffffffffffffffffffffffffffffffffffff1663a9059cbb7f0000000000000000000000000000000000000000000000000000000000000000836040518363ffffffff1660e01b81526004016114f292919061249b565b6020604051808303816000875af1158015611511573d6000803e3d6000fd5b505050506040513d601f19601f8201168201806040525081019061153591906124fc565b507f505fa62ea0720174a8b997fd3178b638988decb6accbab4719644aeb549254938160405161156591906121f7565b60405180910390a150565b6b2a0159141d968317c800000081565b7f000000000000000000000000000000000000000000000000000000000000000081565b3373ffffffffffffffffffffffffffffffffffffffff167f000000000000000000000000000000000000000000000000000000000000000073ffffffffffffffffffffffffffffffffffffffff1614611632576040517f08c379a0000000000000000000000000000000000000000000000000000000008152600401611629906123a3565b60405180910390fd5b42600b5410611676576040517f08c379a000000000000000000000000000000000000000000000000000000000815260040161166d9061240f565b60405180910390fd5b6b2a0159141d968317c8000000600354106116c6576040517f08c379a00000000000000000000000000000000000000000000000000000000081526004016116bd9061247b565b60405180910390fd5b60006116e860146b2a0159141d968317c800000061204c90919063ffffffff16565b905061171d7f000000000000000000000000000000000000000000000000000000000000000042611f7490919063ffffffff16565b600b8190555061173881600354611f7490919063ffffffff16565b600381905550600160009054906101000a900473ffffffffffffffffffffffffffffffffffffffff1673ffffffffffffffffffffffffffffffffffffffff1663a9059cbb7f0000000000000000000000000000000000000000000000000000000000000000836040518363ffffffff1660e01b81526004016117bb92919061249b565b6020604051808303816000875af11580156117da573d6000803e3d6000fd5b505050506040513d601f19601f820116820180604052508101906117fe91906124fc565b507f0f77d1ba2df61264125791821d138e84fa23d8cc5959a376b2015ac88a0600998160405161182e91906121f7565b60405180910390a150565b7f000000000000000000000000000000000000000000000000000000000000000081565b3373ffffffffffffffffffffffffffffffffffffffff167f000000000000000000000000000000000000000000000000000000000000000073ffffffffffffffffffffffffffffffffffffffff16146118eb576040517f08c379a00000000000000000000000000000000000000000000000000000000081526004016118e2906123a3565b60405180910390fd5b42600c541061192f576040517f08c379a00000000000000000000000000000000000000000000000000000000081526004016119269061240f565b60405180910390fd5b6b06765c793fa10079d00000006004541061197f576040517f08c379a00000000000000000000000000000000000000000000000000000000081526004016119769061247b565b60405180910390fd5b600080600954036119c5576119be6103e86119b060646b06765c793fa10079d0000000611fd290919063ffffffff16565b61204c90919063ffffffff16565b9050611a69565b600160095414806119d857506002600954145b806119e557506003600954145b15611a2557611a1e6103e8611a1060c86b06765c793fa10079d0000000611fd290919063ffffffff16565b61204c90919063ffffffff16565b9050611a68565b600460095403611a6757611a646103e8611a5661012c6b06765c793fa10079d0000000611fd290919063ffffffff16565b61204c90919063ffffffff16565b90505b5b5b611a7f6001600954611f7490919063ffffffff16565b600981905550611ab87f000000000000000000000000000000000000000000000000000000000000000042611f7490919063ffffffff16565b600c81905550611ad381600454611f7490919063ffffffff16565b600481905550600160009054906101000a900473ffffffffffffffffffffffffffffffffffffffff1673ffffffffffffffffffffffffffffffffffffffff1663a9059cbb7f0000000000000000000000000000000000000000000000000000000000000000836040518363ffffffff1660e01b8152600401611b5692919061249b565b6020604051808303816000875af1158015611b75573d6000803e3d6000fd5b505050506040513d601f19601f82011682018060405250810190611b9991906124fc565b507fc057661e228fb3ffd4854228382ea793766d3b80e5b574382ac791986222668781604051611bc991906121f7565b60405180910390a150565b3373ffffffffffffffffffffffffffffffffffffffff167f000000000000000000000000000000000000000000000000000000000000000073ffffffffffffffffffffffffffffffffffffffff1614611c62576040517f08c379a0000000000000000000000000000000000000000000000000000000008152600401611c59906123a3565b60405180910390fd5b4260105410611ca6576040517f08c379a0000000000000000000000000000000000000000000000000000000008152600401611c9d9061240f565b60405180910390fd5b6b1027e72f1f1281308800000060085410611cf6576040517f08c379a0000000000000000000000000000000000000000000000000000000008152600401611ced9061247b565b60405180910390fd5b6000611d2e620186a0611d206110476b1027e72f1f12813088000000611fd290919063ffffffff16565b61204c90919063ffffffff16565b9050611d637f000000000000000000000000000000000000000000000000000000000000000042611f7490919063ffffffff16565b601081905550611d7e81600854611f7490919063ffffffff16565b600881905550600160009054906101000a900473ffffffffffffffffffffffffffffffffffffffff1673ffffffffffffffffffffffffffffffffffffffff1663a9059cbb7f0000000000000000000000000000000000000000000000000000000000000000836040518363ffffffff1660e01b8152600401611e0192919061249b565b6020604051808303816000875af1158015611e20573d6000803e3d6000fd5b505050506040513d601f19601f82011682018060405250810190611e4491906124fc565b507fc8c41469dff524cf254420b01497ae475c6816ab1c7b0f715d9f3d81709092f181604051611e7491906121f7565b60405180910390a150565b600b5481565b60035481565b600e5481565b60055481565b60025481565b60105481565b600d5481565b7f000000000000000000000000000000000000000000000000000000000000000081565b60065481565b611edb6120aa565b73ffffffffffffffffffffffffffffffffffffffff1660008054906101000a900473ffffffffffffffffffffffffffffffffffffffff1673ffffffffffffffffffffffffffffffffffffffff1614611f68576040517f08c379a0000000000000000000000000000000000000000000000000000000008152600401611f5f906125ce565b60405180910390fd5b611f71816120b2565b50565b6000808284611f83919061261d565b905083811015611fc8576040517f08c379a0000000000000000000000000000000000000000000000000000000008152600401611fbf906126bf565b60405180910390fd5b8091505092915050565b6000808303611fe45760009050612046565b60008284611ff291906126df565b90508284826120019190612768565b14612041576040517f08c379a00000000000000000000000000000000000000000000000000000000081526004016120389061280b565b60405180910390fd5b809150505b92915050565b6000808211612090576040517f08c379a000000000000000000000000000000000000000000000000000000000815260040161208790612877565b60405180910390fd5b6000828461209e9190612768565b90508091505092915050565b600033905090565b600073ffffffffffffffffffffffffffffffffffffffff168173ffffffffffffffffffffffffffffffffffffffff1603612121576040517f08c379a000000000000000000000000000000000000000000000000000000000815260040161211890612909565b60405180910390fd5b8073ffffffffffffffffffffffffffffffffffffffff1660008054906101000a900473ffffffffffffffffffffffffffffffffffffffff1673ffffffffffffffffffffffffffffffffffffffff167f8be0079c531659141344cd1fd0a4f28419497f9722a3daafe3b4186f6b6457e060405160405180910390a3806000806101000a81548173ffffffffffffffffffffffffffffffffffffffff021916908373ffffffffffffffffffffffffffffffffffffffff16021790555050565b6000819050919050565b6121f1816121de565b82525050565b600060208201905061220c60008301846121e8565b92915050565b600073ffffffffffffffffffffffffffffffffffffffff82169050919050565b600061223d82612212565b9050919050565b61224d81612232565b82525050565b60006020820190506122686000830184612244565b92915050565b6000819050919050565b600061229361228e61228984612212565b61226e565b612212565b9050919050565b60006122a582612278565b9050919050565b60006122b78261229a565b9050919050565b6122c7816122ac565b82525050565b60006020820190506122e260008301846122be565b92915050565b600080fd5b6122f681612232565b811461230157600080fd5b50565b600081359050612313816122ed565b92915050565b60006020828403121561232f5761232e6122e8565b5b600061233d84828501612304565b91505092915050565b600082825260208201905092915050565b7f4e6f7420617574686f72697a6564000000000000000000000000000000000000600082015250565b600061238d600e83612346565b915061239882612357565b602082019050919050565b600060208201905081810360008301526123bc81612380565b9050919050565b7f54696d65206e6f74207061737365640000000000000000000000000000000000600082015250565b60006123f9600f83612346565b9150612404826123c3565b602082019050919050565b60006020820190508181036000830152612428816123ec565b9050919050565b7f416c6c20436c61696d6564000000000000000000000000000000000000000000600082015250565b6000612465600b83612346565b91506124708261242f565b602082019050919050565b6000602082019050818103600083015261249481612458565b9050919050565b60006040820190506124b06000830185612244565b6124bd60208301846121e8565b9392505050565b60008115159050919050565b6124d9816124c4565b81146124e457600080fd5b50565b6000815190506124f6816124d0565b92915050565b600060208284031215612512576125116122e8565b5b6000612520848285016124e7565b91505092915050565b612532816121de565b811461253d57600080fd5b50565b60008151905061254f81612529565b92915050565b60006020828403121561256b5761256a6122e8565b5b600061257984828501612540565b91505092915050565b7f4f776e61626c653a2063616c6c6572206973206e6f7420746865206f776e6572600082015250565b60006125b8602083612346565b91506125c382612582565b602082019050919050565b600060208201905081810360008301526125e7816125ab565b9050919050565b7f4e487b7100000000000000000000000000000000000000000000000000000000600052601160045260246000fd5b6000612628826121de565b9150612633836121de565b9250827fffffffffffffffffffffffffffffffffffffffffffffffffffffffffffffffff03821115612668576126676125ee565b5b828201905092915050565b7f536166654d6174683a206164646974696f6e206f766572666c6f770000000000600082015250565b60006126a9601b83612346565b91506126b482612673565b602082019050919050565b600060208201905081810360008301526126d88161269c565b9050919050565b60006126ea826121de565b91506126f5836121de565b9250817fffffffffffffffffffffffffffffffffffffffffffffffffffffffffffffffff048311821515161561272e5761272d6125ee565b5b828202905092915050565b7f4e487b7100000000000000000000000000000000000000000000000000000000600052601260045260246000fd5b6000612773826121de565b915061277e836121de565b92508261278e5761278d612739565b5b828204905092915050565b7f536166654d6174683a206d756c7469706c69636174696f6e206f766572666c6f60008201527f7700000000000000000000000000000000000000000000000000000000000000602082015250565b60006127f5602183612346565b915061280082612799565b604082019050919050565b60006020820190508181036000830152612824816127e8565b9050919050565b7f536166654d6174683a206469766973696f6e206279207a65726f000000000000600082015250565b6000612861601a83612346565b915061286c8261282b565b602082019050919050565b6000602082019050818103600083015261289081612854565b9050919050565b7f4f776e61626c653a206e6577206f776e657220697320746865207a65726f206160008201527f6464726573730000000000000000000000000000000000000000000000000000602082015250565b60006128f3602683612346565b91506128fe82612897565b604082019050919050565b60006020820190508181036000830152612922816128e6565b905091905056fea264697066735822122061b90678c5abf4922ef8930e94dd37423bbc7caafa9d78ef0f9e19f09c0e7ba664736f6c634300080d0033",
  "immutableReferences": {
    "1556": [
      {
        "length": 32,
        "start": 1829
      },
      {
        "length": 32,
        "start": 2278
      },
      {
        "length": 32,
        "start": 2503
      }
    ],
    "1558": [
      {
        "length": 32,
        "start": 5565
      },
      {
        "length": 32,
        "start": 6014
      },
      {
        "length": 32,
        "start": 7851
      }
    ],
    "1560": [
      {
        "length": 32,
        "start": 3388
      },
      {
        "length": 32,
        "start": 6262
      },
      {
        "length": 32,
        "start": 6937
      }
    ],
    "1562": [
      {
        "length": 32,
        "start": 4852
      },
      {
        "length": 32,
        "start": 5301
      },
      {
        "length": 32,
        "start": 6203
      }
    ],
    "1564": [
      {
        "length": 32,
        "start": 3956
      },
      {
        "length": 32,
        "start": 4571
      },
      {
        "length": 32,
        "start": 5506
      }
    ],
    "1566": [
      {
        "length": 32,
        "start": 2653
      },
      {
        "length": 32,
        "start": 2712
      },
      {
        "length": 32,
        "start": 3183
      }
    ],
    "1568": [
      {
        "length": 32,
        "start": 2467
      },
      {
        "length": 32,
        "start": 7149
      },
      {
        "length": 32,
        "start": 7620
      }
    ],
    "1663": [
      {
        "length": 32,
        "start": 2617
      }
    ],
    "1688": [
      {
        "length": 32,
        "start": 2135
      },
      {
        "length": 32,
        "start": 3040
      },
      {
        "length": 32,
        "start": 4297
      },
      {
        "length": 32,
        "start": 4427
      },
      {
        "length": 32,
        "start": 5158
      },
      {
        "length": 32,
        "start": 5871
      },
      {
        "length": 32,
        "start": 6794
      },
      {
        "length": 32,
        "start": 7477
      }
    ]
  },
  "source": "// SPDX-License-Identifier: MIT\n\npragma solidity ^0.8.4;\n\ninterface IERC20 {\n    /**\n     * @dev Returns the amount of tokens in existence.\n     */\n    function totalSupply() external view returns (uint256);\n\n    /**\n     * @dev Returns the amount of tokens owned by `account`.\n     */\n    function balanceOf(address account) external view returns (uint256);\n\n    /**\n     * @dev Moves `amount` tokens from the caller's account to `recipient`.\n     *\n     * Returns a boolean value indicating whether the operation succeeded.\n     *\n     * Emits a {Transfer} event.\n     */\n    function transfer(address recipient, uint256 amount)\n        external\n        returns (bool);\n\n    /**\n     * @dev Returns the remaining number of tokens that `spender` will be\n     * allowed to spend on behalf of `owner` through {transferFrom}. This is\n     * zero by default.\n     *\n     * This value changes when {approve} or {transferFrom} are called.\n     */\n    function allowance(address owner, address spender)\n        external\n        view\n        returns (uint256);\n\n    /**\n     * @dev Sets `amount` as the allowance of `spender` over the caller's tokens.\n     *\n     * Returns a boolean value indicating whether the operation succeeded.\n     *\n     * IMPORTANT: Beware that changing an allowance with this method brings the risk\n     * that someone may use both the old and the new allowance by unfortunate\n     * transaction ordering. One possible solution to mitigate this race\n     * condition is to first reduce the spender's allowance to 0 and set the\n     * desired value afterwards:\n     * https://github.com/ethereum/EIPs/issues/20#issuecomment-263524729\n     *\n     * Emits an {Approval} event.\n     */\n    function approve(address spender, uint256 amount) external returns (bool);\n\n    /**\n     * @dev Moves `amount` tokens from `sender` to `recipient` using the\n     * allowance mechanism. `amount` is then deducted from the caller's\n     * allowance.\n     *\n     * Returns a boolean value indicating whether the operation succeeded.\n     *\n     * Emits a {Transfer} event.\n     */\n    function transferFrom(\n        address sender,\n        address recipient,\n        uint256 amount\n    ) external returns (bool);\n\n    /**\n     * @dev Emitted when `value` tokens are moved from one account (`from`) to\n     * another (`to`).\n     *\n     * Note that `value` may be zero.\n     */\n    event Transfer(address indexed from, address indexed to, uint256 value);\n\n    /**\n     * @dev Emitted when the allowance of a `spender` for an `owner` is set by\n     * a call to {approve}. `value` is the new allowance.\n     */\n    event Approval(\n        address indexed owner,\n        address indexed spender,\n        uint256 value\n    );\n}\n\nlibrary SafeMath {\n    function add(uint256 a, uint256 b) internal pure returns (uint256) {\n        uint256 c = a + b;\n        require(c >= a, \"SafeMath: addition overflow\");\n\n        return c;\n    }\n\n    function sub(uint256 a, uint256 b) internal pure returns (uint256) {\n        require(b <= a, \"SafeMath: subtraction overflow\");\n        uint256 c = a - b;\n\n        return c;\n    }\n\n    function mul(uint256 a, uint256 b) internal pure returns (uint256) {\n        if (a == 0) {\n            return 0;\n        }\n\n        uint256 c = a * b;\n        require(c / a == b, \"SafeMath: multiplication overflow\");\n\n        return c;\n    }\n\n    function div(uint256 a, uint256 b) internal pure returns (uint256) {\n        require(b > 0, \"SafeMath: division by zero\");\n        uint256 c = a / b;\n\n        return c;\n    }\n}\n\n/*\n * @dev Provides information about the current execution context, including the\n * sender of the transaction and its data. While these are generally available\n * via msg.sender and msg.data, they should not be accessed in such a direct\n * manner, since when dealing with GSN meta-transactions the account sending and\n * paying for execution may not be the actual sender (as far as an application\n * is concerned).\n *\n * This contract is only required for intermediate, library-like contracts.\n */\ncontract Context {\n    // Empty internal constructor, to prevent people from mistakenly deploying\n    // an instance of this contract, which should be used via inheritance.\n    constructor() {}\n\n    function _msgSender() internal view returns (address payable) {\n        return payable(msg.sender);\n    }\n\n    function _msgData() internal view returns (bytes memory) {\n        this; // silence state mutability warning without generating bytecode - see https://github.com/ethereum/solidity/issues/2691\n        return msg.data;\n    }\n}\n\n//\n/**\n * @dev Contract module which provides a basic access control mechanism, where\n * there is an account (an owner) that can be granted exclusive access to\n * specific functions.\n *\n * By default, the owner account will be the one that deploys the contract. This\n * can later be changed with {transferOwnership}.\n *\n * This module is used through inheritance. It will make available the modifier\n * `onlyOwner`, which can be applied to your functions to restrict their use to\n * the owner.\n */\ncontract Ownable is Context {\n    address private _owner;\n\n    event OwnershipTransferred(\n        address indexed previousOwner,\n        address indexed newOwner\n    );\n\n    /**\n     * @dev Initializes the contract setting the deployer as the initial owner.\n     */\n    constructor() {\n        address msgSender = _msgSender();\n        _owner = msgSender;\n        emit OwnershipTransferred(address(0), msgSender);\n    }\n\n    /**\n     * @dev Returns the address of the current owner.\n     */\n    function owner() external view returns (address) {\n        return _owner;\n    }\n\n    /**\n     * @dev Throws if called by any account other than the owner.\n     */\n    modifier onlyOwner() {\n        require(_owner == _msgSender(), \"Ownable: caller is not the owner\");\n        _;\n    }\n\n    /**\n     * @dev Leaves the contract without owner. It will not be possible to call\n     * `onlyOwner` functions anymore. Can only be called by the current owner.\n     *\n     * NOTE: Renouncing ownership will leave the contract without an owner,\n     * thereby removing any functionality that is only available to the owner.\n     */\n    function renounceOwnership() external onlyOwner {\n        emit OwnershipTransferred(_owner, address(0));\n        _owner = address(0);\n    }\n\n    /**\n     * @dev Transfers ownership of the contract to a new account (`newOwner`).\n     * Can only be called by the current owner.\n     */\n    function transferOwnership(address newOwner) external onlyOwner {\n        _transferOwnership(newOwner);\n    }\n\n    /**\n     * @dev Transfers ownership of the contract to a new account (`newOwner`).\n     */\n    function _transferOwnership(address newOwner) internal {\n        require(\n            newOwner != address(0),\n            \"Ownable: new owner is the zero address\"\n        );\n        emit OwnershipTransferred(_owner, newOwner);\n        _owner = newOwner;\n    }\n}\n\ncontract MetaClashVesting is Ownable {\n    using SafeMath for uint256;\n\n    IERC20 public _tokenInstance;\n\n    uint256 public constant ONE_DAY = 1 days;\n\n    address immutable  public seedSaleWallet;\n    address immutable public privateSaleWallet;\n    address immutable public publicSaleWallet;\n    address immutable public nftWallet;\n    address immutable public listingAndLiquidityWallet;\n\n    address immutable  public teamWallet;\n    address immutable public advisorWallet;\n\n    uint256 public constant SEED_WALLET_SHARE = 3 * 10**9 * 10**18;\n    uint256 public constant PRIVATE_SALE_SHARE = 13 * 10**9 * 10**18;\n    uint256 public constant PUBLIC_SALE_SHARE = 2 * 10**9 * 10**18;\n    uint256 public constant NFT_SALE_SHARE = 31 * 10**8 * 10**18;\n    uint256 public constant LISTING_LIQUIDITY_SHARE = 3 * 10**9 * 10**18;\n\n    uint256 public constant TEAM_SHARE = 15 * 10**9 * 10**18;\n    uint256 public constant ADVISOR_SHARE = 5 * 10**9 * 10**18;\n\n    uint256 public immutable totalLocked =\n        SEED_WALLET_SHARE\n            .add(PRIVATE_SALE_SHARE)\n            .add(PUBLIC_SALE_SHARE)\n            .add(NFT_SALE_SHARE)\n            .add(TEAM_SHARE)\n            .add(ADVISOR_SHARE);\n\n    uint256 public seedSaleClaimed;\n    uint256 public privateSaleClaimed;\n    uint256 public publicSaleClaimed;\n    uint256 public nftClaimed;\n    uint256 public listingAndLiquidityClaimed;\n\n    uint256 public teamClaimed;\n    uint256 public advisorClaimed;\n\n    uint256 public publicShareNoOfClaims;\n\n    uint256 private immutable ONE_MONTH = uint256(30).mul(ONE_DAY);\n\n    uint256 public seedSaleReleaseTime;\n    uint256 public privateSaleReleaseTime;\n    uint256 public publicSaleReleaseTime;\n    uint256 public nftReleaseTime;\n    uint256 public liquidityReleaseTime;\n    uint256 public teamReleaseTime;\n    uint256 public advisorReleaseTime;\n\n    event OnSeedSaleClaim(uint256 amount);\n    event OnPrivateSaleClaim(uint256 amount);\n    event OnPublicSaleClaim(uint256 amount);\n    event OnNFTSaleClaim(uint256 amount);\n    event OnListingAndLiquidityClaim(uint256 amount);\n    event OnAdvisorAndLiquidityClaim(uint256 amount);\n    event OnTeamClaim(uint256 amount);\n\n    constructor(\n        address token,\n        address _seedSaleWallet,\n        address _privateSaleWallet,\n        address _publicSaleWallet,\n        address _nftWallet,\n        address _listingAndLiquidityWallet,\n        address _teamWallet,\n        address _advisorWallet\n    ) {\n        require(_seedSaleWallet != address(0), \"Invalid Address\");\n        require(_privateSaleWallet != address(0), \"Invalid Address\");\n        require(_publicSaleWallet != address(0), \"Invalid Address\");\n        require(_nftWallet != address(0), \"Invalid Address\");\n        require(_listingAndLiquidityWallet != address(0), \"Invalid Address\");\n        require(_teamWallet != address(0), \"Invalid Address\");\n        require(_advisorWallet != address(0), \"Invalid Address\");\n\n        seedSaleWallet = _seedSaleWallet;\n        privateSaleWallet = _privateSaleWallet;\n        publicSaleWallet = _publicSaleWallet;\n        nftWallet = _nftWallet;\n        listingAndLiquidityWallet = _listingAndLiquidityWallet;\n        teamWallet = _teamWallet;\n        advisorWallet = _advisorWallet;\n\n        seedSaleReleaseTime = block.timestamp;\n        privateSaleReleaseTime = block.timestamp;\n        publicSaleReleaseTime = block.timestamp;\n        nftReleaseTime = block.timestamp;\n        liquidityReleaseTime = block.timestamp;\n        teamReleaseTime = block.timestamp.add(ONE_MONTH.mul(12)); // after 12 months\n        advisorReleaseTime = block.timestamp.add(ONE_MONTH.mul(12)); // after 12 months\n\n        _tokenInstance = IERC20(token);\n    }\n\n    function getContractBalance() external view returns (uint256) {\n        return _tokenInstance.balanceOf(address(this));\n    }\n\n    function claimSeedSaleShare() external {\n        require(seedSaleWallet == msg.sender, \"Not authorized\");\n        require(seedSaleReleaseTime < block.timestamp, \"Time not passed\");\n        require(seedSaleClaimed < SEED_WALLET_SHARE, \"All Claimed\");\n        uint256 amount = SEED_WALLET_SHARE.div(20);\n        seedSaleReleaseTime = block.timestamp.add(ONE_MONTH);\n        seedSaleClaimed = seedSaleClaimed.add(amount);\n        _tokenInstance.transfer(seedSaleWallet, amount);\n        emit OnSeedSaleClaim(amount);\n    }\n\n    function claimPrivateSaleShare() external {\n        require(privateSaleWallet == msg.sender, \"Not authorized\");\n        require(privateSaleReleaseTime < block.timestamp, \"Time not passed\");\n        require(privateSaleClaimed < PRIVATE_SALE_SHARE, \"All Claimed\");\n        uint256 amount = PRIVATE_SALE_SHARE.div(20);\n        privateSaleReleaseTime = block.timestamp.add(ONE_MONTH);\n        privateSaleClaimed = privateSaleClaimed.add(amount);\n        _tokenInstance.transfer(privateSaleWallet, amount);\n        emit OnPrivateSaleClaim(amount);\n    }\n\n    function claimPublicSaleShare() external {\n        require(publicSaleWallet == msg.sender, \"Not authorized\");\n        require(publicSaleReleaseTime < block.timestamp, \"Time not passed\");\n        require(publicSaleClaimed < PUBLIC_SALE_SHARE, \"All Claimed\");\n        uint256 amount = 0;\n        if (publicShareNoOfClaims == 0) {\n            amount = PUBLIC_SALE_SHARE.mul(100).div(1000);\n        } else if (\n            publicShareNoOfClaims == 1 ||\n            publicShareNoOfClaims == 2 ||\n            publicShareNoOfClaims == 3\n        ) {\n            amount = PUBLIC_SALE_SHARE.mul(200).div(1000);\n        } else if (publicShareNoOfClaims == 4) {\n            amount = PUBLIC_SALE_SHARE.mul(300).div(1000);\n        }\n\n        publicShareNoOfClaims = publicShareNoOfClaims.add(1);\n        publicSaleReleaseTime = block.timestamp.add(ONE_MONTH);\n        publicSaleClaimed = publicSaleClaimed.add(amount);\n        _tokenInstance.transfer(publicSaleWallet, amount);\n        emit OnPublicSaleClaim(amount);\n    }\n\n    function claimNFTShare() external {\n        require(nftWallet == msg.sender, \"Not authorized\");\n        require(nftReleaseTime < block.timestamp, \"Time not passed\");\n        require(nftClaimed < NFT_SALE_SHARE, \"All Claimed\");\n        uint256 amount = NFT_SALE_SHARE.div(10);\n        nftReleaseTime = block.timestamp.add(ONE_MONTH);\n        nftClaimed = nftClaimed.add(amount);\n        _tokenInstance.transfer(nftWallet, amount);\n        emit OnNFTSaleClaim(amount);\n    }\n\n    function claimListingAndLiquidityShare() external {\n        require(listingAndLiquidityWallet == msg.sender, \"Not authorized\");\n        require(liquidityReleaseTime < block.timestamp, \"Time not passed\");\n        require(\n            listingAndLiquidityClaimed < LISTING_LIQUIDITY_SHARE,\n            \"All Claimed\"\n        );\n\n        uint256 amount = 0;\n        if (listingAndLiquidityClaimed == 0) {\n            amount = LISTING_LIQUIDITY_SHARE.mul(400).div(1000);\n            liquidityReleaseTime = block.timestamp.add(ONE_MONTH.mul(3));\n        } else {\n            amount = LISTING_LIQUIDITY_SHARE.mul(25).div(1000);\n            liquidityReleaseTime = block.timestamp.add(ONE_MONTH);\n        }\n        listingAndLiquidityClaimed = listingAndLiquidityClaimed.add(amount);\n        _tokenInstance.transfer(listingAndLiquidityWallet, amount);\n        emit OnListingAndLiquidityClaim(amount);\n    }\n\n    function claimTeamShare() external {\n        require(teamWallet == msg.sender, \"Not authorized\");\n        require(teamReleaseTime < block.timestamp, \"Time not passed\");\n        require(teamClaimed < TEAM_SHARE, \"All Claimed\");\n\n        uint256 amount = TEAM_SHARE.mul(4167).div(100000);\n        teamReleaseTime = block.timestamp.add(ONE_MONTH);\n        teamClaimed = teamClaimed.add(amount);\n        _tokenInstance.transfer(teamWallet, amount);\n        emit OnTeamClaim( amount);\n\n    }\n\n    function claimAdvisorShare() external {\n        require(advisorWallet == msg.sender, \"Not authorized\");\n        require(advisorReleaseTime < block.timestamp, \"Time not passed\");\n        require(advisorClaimed < ADVISOR_SHARE, \"All Claimed\");\n\n        uint256 amount = ADVISOR_SHARE.mul(4167).div(100000);\n        advisorReleaseTime = block.timestamp.add(ONE_MONTH);\n        advisorClaimed = advisorClaimed.add(amount);\n        _tokenInstance.transfer(advisorWallet, amount);\n        emit OnAdvisorAndLiquidityClaim( amount);\n\n    }\n}\n",
  "sourcePath": "/Users/shahzeb/Desktop/projects/clients/dexter/metalclash/contracts/contracts/MetaClashVestingContract.sol",
  "compiler": {
    "name": "solc",
    "version": "0.8.13+commit.abaa5c0e.Emscripten.clang"
  },
  "schemaVersion": "3.4.6",
  "updatedAt": "2022-08-17T11:25:08.909Z",
  "devdoc": {
    "kind": "dev",
    "methods": {
      "owner()": {
        "details": "Returns the address of the current owner."
      },
      "renounceOwnership()": {
        "details": "Leaves the contract without owner. It will not be possible to call `onlyOwner` functions anymore. Can only be called by the current owner. NOTE: Renouncing ownership will leave the contract without an owner, thereby removing any functionality that is only available to the owner."
      },
      "transferOwnership(address)": {
        "details": "Transfers ownership of the contract to a new account (`newOwner`). Can only be called by the current owner."
      }
    },
    "version": 1
  },
  "userdoc": {
    "kind": "user",
    "methods": {},
    "version": 1
  }
}